{
	"contracts/storage_clq.sol": {
		"PaidStorage": {
			"abi": [
				{
					"inputs": [
						{
							"internalType": "address",
							"name": "_clqAddress",
							"type": "address"
						}
					],
					"stateMutability": "nonpayable",
					"type": "constructor"
				},
				{
					"inputs": [],
					"name": "InsufficientAllowance",
					"type": "error"
				},
				{
					"inputs": [],
					"name": "InsufficientBalance",
					"type": "error"
				},
				{
					"inputs": [],
					"name": "allowance",
					"outputs": [
						{
							"internalType": "uint256",
							"name": "",
							"type": "uint256"
						}
					],
					"stateMutability": "view",
					"type": "function"
				},
				{
					"inputs": [],
					"name": "balance",
					"outputs": [
						{
							"internalType": "uint256",
							"name": "",
							"type": "uint256"
						}
					],
					"stateMutability": "view",
					"type": "function"
				},
				{
					"inputs": [],
					"name": "checkMyCLQAllowance",
					"outputs": [
						{
							"internalType": "uint256",
							"name": "",
							"type": "uint256"
						}
					],
					"stateMutability": "view",
					"type": "function"
				},
				{
					"inputs": [],
					"name": "checkMyCLQBalance",
					"outputs": [
						{
							"internalType": "uint256",
							"name": "",
							"type": "uint256"
						}
					],
					"stateMutability": "view",
					"type": "function"
				},
				{
					"inputs": [],
					"name": "clqToken",
					"outputs": [
						{
							"internalType": "contract IERC20",
							"name": "",
							"type": "address"
						}
					],
					"stateMutability": "view",
					"type": "function"
				},
				{
					"inputs": [],
					"name": "fee",
					"outputs": [
						{
							"internalType": "uint256",
							"name": "",
							"type": "uint256"
						}
					],
					"stateMutability": "view",
					"type": "function"
				},
				{
					"inputs": [],
					"name": "owner",
					"outputs": [
						{
							"internalType": "address",
							"name": "",
							"type": "address"
						}
					],
					"stateMutability": "view",
					"type": "function"
				},
				{
					"inputs": [],
					"name": "retrieve",
					"outputs": [
						{
							"internalType": "uint256",
							"name": "",
							"type": "uint256"
						}
					],
					"stateMutability": "view",
					"type": "function"
				},
				{
					"inputs": [
						{
							"internalType": "uint256",
							"name": "newFee",
							"type": "uint256"
						}
					],
					"name": "setFee",
					"outputs": [],
					"stateMutability": "nonpayable",
					"type": "function"
				},
				{
					"inputs": [
						{
							"internalType": "uint256",
							"name": "num",
							"type": "uint256"
						}
					],
					"name": "store",
					"outputs": [],
					"stateMutability": "nonpayable",
					"type": "function"
				}
			],
			"devdoc": {
				"kind": "dev",
				"methods": {},
				"version": 1
			},
			"evm": {
				"assembly": "    /* \"contracts/storage_clq.sol\":247:1662  contract PaidStorage {... */\n  mstore(0x40, 0x80)\n    /* \"contracts/storage_clq.sol\":382:395  10 * 10 ** 18 */\n  0x8ac7230489e80000\n    /* \"contracts/storage_clq.sol\":361:395  uint256 public fee = 10 * 10 ** 18 */\n  0x02\n  sstore\n    /* \"contracts/storage_clq.sol\":456:464  clqToken */\n  0x00\n  0x00\n  swap1\n  sload\n  swap1\n  0x0100\n  exp\n  swap1\n  div\n  0xffffffffffffffffffffffffffffffffffffffff\n  and\n    /* \"contracts/storage_clq.sol\":456:474  clqToken.allowance */\n  0xffffffffffffffffffffffffffffffffffffffff\n  and\n  0xdd62ed3e\n    /* \"contracts/storage_clq.sol\":475:485  msg.sender */\n  caller\n    /* \"contracts/storage_clq.sol\":495:499  this */\n  address\n    /* \"contracts/storage_clq.sol\":456:501  clqToken.allowance(msg.sender, address(this)) */\n  mload(0x40)\n  dup4\n  0xffffffff\n  and\n  0xe0\n  shl\n  dup2\n  mstore\n  0x04\n  add\n  tag_1\n  swap3\n  swap2\n  swap1\n  tag_2\n  jump\t// in\ntag_1:\n  0x20\n  mload(0x40)\n  dup1\n  dup4\n  sub\n  dup2\n  dup7\n  gas\n  staticcall\n  iszero\n  dup1\n  iszero\n  tag_4\n  jumpi\n  returndatacopy(0x00, 0x00, returndatasize)\n  revert(0x00, returndatasize)\ntag_4:\n  pop\n  pop\n  pop\n  pop\n  mload(0x40)\n  returndatasize\n  not(0x1f)\n  0x1f\n  dup3\n  add\n  and\n  dup3\n  add\n  dup1\n  0x40\n  mstore\n  pop\n  dup2\n  add\n  swap1\n  tag_5\n  swap2\n  swap1\n  tag_6\n  jump\t// in\ntag_5:\n    /* \"contracts/storage_clq.sol\":429:501  uint256 public allowance = clqToken.allowance(msg.sender, address(this)) */\n  0x04\n  sstore\n    /* \"contracts/storage_clq.sol\":532:540  clqToken */\n  0x00\n  0x00\n  swap1\n  sload\n  swap1\n  0x0100\n  exp\n  swap1\n  div\n  0xffffffffffffffffffffffffffffffffffffffff\n  and\n    /* \"contracts/storage_clq.sol\":532:550  clqToken.balanceOf */\n  0xffffffffffffffffffffffffffffffffffffffff\n  and\n  0x70a08231\n    /* \"contracts/storage_clq.sol\":551:561  msg.sender */\n  caller\n    /* \"contracts/storage_clq.sol\":532:562  clqToken.balanceOf(msg.sender) */\n  mload(0x40)\n  dup3\n  0xffffffff\n  and\n  0xe0\n  shl\n  dup2\n  mstore\n  0x04\n  add\n  tag_7\n  swap2\n  swap1\n  tag_8\n  jump\t// in\ntag_7:\n  0x20\n  mload(0x40)\n  dup1\n  dup4\n  sub\n  dup2\n  dup7\n  gas\n  staticcall\n  iszero\n  dup1\n  iszero\n  tag_10\n  jumpi\n  returndatacopy(0x00, 0x00, returndatasize)\n  revert(0x00, returndatasize)\ntag_10:\n  pop\n  pop\n  pop\n  pop\n  mload(0x40)\n  returndatasize\n  not(0x1f)\n  0x1f\n  dup3\n  add\n  and\n  dup3\n  add\n  dup1\n  0x40\n  mstore\n  pop\n  dup2\n  add\n  swap1\n  tag_11\n  swap2\n  swap1\n  tag_6\n  jump\t// in\ntag_11:\n    /* \"contracts/storage_clq.sol\":507:562  uint256 public balance = clqToken.balanceOf(msg.sender) */\n  0x05\n  sstore\n    /* \"contracts/storage_clq.sol\":639:747  constructor(address _clqAddress) {... */\n  callvalue\n  dup1\n  iszero\n  tag_12\n  jumpi\n  revert(0x00, 0x00)\ntag_12:\n  pop\n  mload(0x40)\n  sub(codesize, bytecodeSize)\n  dup1\n  bytecodeSize\n  dup4\n  codecopy\n  dup2\n  dup2\n  add\n  0x40\n  mstore\n  dup2\n  add\n  swap1\n  tag_13\n  swap2\n  swap1\n  tag_14\n  jump\t// in\ntag_13:\n    /* \"contracts/storage_clq.sol\":700:711  _clqAddress */\n  dup1\n    /* \"contracts/storage_clq.sol\":682:690  clqToken */\n  0x00\n  0x00\n    /* \"contracts/storage_clq.sol\":682:712  clqToken = IERC20(_clqAddress) */\n  0x0100\n  exp\n  dup2\n  sload\n  dup2\n  0xffffffffffffffffffffffffffffffffffffffff\n  mul\n  not\n  and\n  swap1\n  dup4\n  0xffffffffffffffffffffffffffffffffffffffff\n  and\n  mul\n  or\n  swap1\n  sstore\n  pop\n    /* \"contracts/storage_clq.sol\":730:740  msg.sender */\n  caller\n    /* \"contracts/storage_clq.sol\":722:727  owner */\n  0x01\n  0x00\n    /* \"contracts/storage_clq.sol\":722:740  owner = msg.sender */\n  0x0100\n  exp\n  dup2\n  sload\n  dup2\n  0xffffffffffffffffffffffffffffffffffffffff\n  mul\n  not\n  and\n  swap1\n  dup4\n  0xffffffffffffffffffffffffffffffffffffffff\n  and\n  mul\n  or\n  swap1\n  sstore\n  pop\n    /* \"contracts/storage_clq.sol\":639:747  constructor(address _clqAddress) {... */\n  pop\n    /* \"contracts/storage_clq.sol\":247:1662  contract PaidStorage {... */\n  jump(tag_17)\n    /* \"#utility.yul\":7:133   */\ntag_18:\n    /* \"#utility.yul\":44:51   */\n  0x00\n    /* \"#utility.yul\":84:126   */\n  0xffffffffffffffffffffffffffffffffffffffff\n    /* \"#utility.yul\":77:82   */\n  dup3\n    /* \"#utility.yul\":73:127   */\n  and\n    /* \"#utility.yul\":62:127   */\n  swap1\n  pop\n    /* \"#utility.yul\":7:133   */\n  swap2\n  swap1\n  pop\n  jump\t// out\n    /* \"#utility.yul\":139:235   */\ntag_19:\n    /* \"#utility.yul\":176:183   */\n  0x00\n    /* \"#utility.yul\":205:229   */\n  tag_32\n    /* \"#utility.yul\":223:228   */\n  dup3\n    /* \"#utility.yul\":205:229   */\n  tag_18\n  jump\t// in\ntag_32:\n    /* \"#utility.yul\":194:229   */\n  swap1\n  pop\n    /* \"#utility.yul\":139:235   */\n  swap2\n  swap1\n  pop\n  jump\t// out\n    /* \"#utility.yul\":241:359   */\ntag_20:\n    /* \"#utility.yul\":328:352   */\n  tag_34\n    /* \"#utility.yul\":346:351   */\n  dup2\n    /* \"#utility.yul\":328:352   */\n  tag_19\n  jump\t// in\ntag_34:\n    /* \"#utility.yul\":323:326   */\n  dup3\n    /* \"#utility.yul\":316:353   */\n  mstore\n    /* \"#utility.yul\":241:359   */\n  pop\n  pop\n  jump\t// out\n    /* \"#utility.yul\":365:697   */\ntag_2:\n    /* \"#utility.yul\":486:490   */\n  0x00\n    /* \"#utility.yul\":524:526   */\n  0x40\n    /* \"#utility.yul\":513:522   */\n  dup3\n    /* \"#utility.yul\":509:527   */\n  add\n    /* \"#utility.yul\":501:527   */\n  swap1\n  pop\n    /* \"#utility.yul\":537:608   */\n  tag_36\n    /* \"#utility.yul\":605:606   */\n  0x00\n    /* \"#utility.yul\":594:603   */\n  dup4\n    /* \"#utility.yul\":590:607   */\n  add\n    /* \"#utility.yul\":581:587   */\n  dup6\n    /* \"#utility.yul\":537:608   */\n  tag_20\n  jump\t// in\ntag_36:\n    /* \"#utility.yul\":618:690   */\n  tag_37\n    /* \"#utility.yul\":686:688   */\n  0x20\n    /* \"#utility.yul\":675:684   */\n  dup4\n    /* \"#utility.yul\":671:689   */\n  add\n    /* \"#utility.yul\":662:668   */\n  dup5\n    /* \"#utility.yul\":618:690   */\n  tag_20\n  jump\t// in\ntag_37:\n    /* \"#utility.yul\":365:697   */\n  swap4\n  swap3\n  pop\n  pop\n  pop\n  jump\t// out\n    /* \"#utility.yul\":784:901   */\ntag_22:\n    /* \"#utility.yul\":893:894   */\n  0x00\n    /* \"#utility.yul\":890:891   */\n  0x00\n    /* \"#utility.yul\":883:895   */\n  revert\n    /* \"#utility.yul\":1030:1107   */\ntag_24:\n    /* \"#utility.yul\":1067:1074   */\n  0x00\n    /* \"#utility.yul\":1096:1101   */\n  dup2\n    /* \"#utility.yul\":1085:1101   */\n  swap1\n  pop\n    /* \"#utility.yul\":1030:1107   */\n  swap2\n  swap1\n  pop\n  jump\t// out\n    /* \"#utility.yul\":1113:1235   */\ntag_25:\n    /* \"#utility.yul\":1186:1210   */\n  tag_43\n    /* \"#utility.yul\":1204:1209   */\n  dup2\n    /* \"#utility.yul\":1186:1210   */\n  tag_24\n  jump\t// in\ntag_43:\n    /* \"#utility.yul\":1179:1184   */\n  dup2\n    /* \"#utility.yul\":1176:1211   */\n  eq\n    /* \"#utility.yul\":1166:1229   */\n  tag_44\n  jumpi\n    /* \"#utility.yul\":1225:1226   */\n  0x00\n    /* \"#utility.yul\":1222:1223   */\n  0x00\n    /* \"#utility.yul\":1215:1227   */\n  revert\n    /* \"#utility.yul\":1166:1229   */\ntag_44:\n    /* \"#utility.yul\":1113:1235   */\n  pop\n  jump\t// out\n    /* \"#utility.yul\":1241:1384   */\ntag_26:\n    /* \"#utility.yul\":1298:1303   */\n  0x00\n    /* \"#utility.yul\":1329:1335   */\n  dup2\n    /* \"#utility.yul\":1323:1336   */\n  mload\n    /* \"#utility.yul\":1314:1336   */\n  swap1\n  pop\n    /* \"#utility.yul\":1345:1378   */\n  tag_46\n    /* \"#utility.yul\":1372:1377   */\n  dup2\n    /* \"#utility.yul\":1345:1378   */\n  tag_25\n  jump\t// in\ntag_46:\n    /* \"#utility.yul\":1241:1384   */\n  swap3\n  swap2\n  pop\n  pop\n  jump\t// out\n    /* \"#utility.yul\":1390:1741   */\ntag_6:\n    /* \"#utility.yul\":1460:1466   */\n  0x00\n    /* \"#utility.yul\":1509:1511   */\n  0x20\n    /* \"#utility.yul\":1497:1506   */\n  dup3\n    /* \"#utility.yul\":1488:1495   */\n  dup5\n    /* \"#utility.yul\":1484:1507   */\n  sub\n    /* \"#utility.yul\":1480:1512   */\n  slt\n    /* \"#utility.yul\":1477:1596   */\n  iszero\n  tag_48\n  jumpi\n    /* \"#utility.yul\":1515:1594   */\n  tag_49\n  tag_22\n  jump\t// in\ntag_49:\n    /* \"#utility.yul\":1477:1596   */\ntag_48:\n    /* \"#utility.yul\":1635:1636   */\n  0x00\n    /* \"#utility.yul\":1660:1724   */\n  tag_50\n    /* \"#utility.yul\":1716:1723   */\n  dup5\n    /* \"#utility.yul\":1707:1713   */\n  dup3\n    /* \"#utility.yul\":1696:1705   */\n  dup6\n    /* \"#utility.yul\":1692:1714   */\n  add\n    /* \"#utility.yul\":1660:1724   */\n  tag_26\n  jump\t// in\ntag_50:\n    /* \"#utility.yul\":1650:1724   */\n  swap2\n  pop\n    /* \"#utility.yul\":1606:1734   */\n  pop\n    /* \"#utility.yul\":1390:1741   */\n  swap3\n  swap2\n  pop\n  pop\n  jump\t// out\n    /* \"#utility.yul\":1747:1969   */\ntag_8:\n    /* \"#utility.yul\":1840:1844   */\n  0x00\n    /* \"#utility.yul\":1878:1880   */\n  0x20\n    /* \"#utility.yul\":1867:1876   */\n  dup3\n    /* \"#utility.yul\":1863:1881   */\n  add\n    /* \"#utility.yul\":1855:1881   */\n  swap1\n  pop\n    /* \"#utility.yul\":1891:1962   */\n  tag_52\n    /* \"#utility.yul\":1959:1960   */\n  0x00\n    /* \"#utility.yul\":1948:1957   */\n  dup4\n    /* \"#utility.yul\":1944:1961   */\n  add\n    /* \"#utility.yul\":1935:1941   */\n  dup5\n    /* \"#utility.yul\":1891:1962   */\n  tag_20\n  jump\t// in\ntag_52:\n    /* \"#utility.yul\":1747:1969   */\n  swap3\n  swap2\n  pop\n  pop\n  jump\t// out\n    /* \"#utility.yul\":1975:2097   */\ntag_27:\n    /* \"#utility.yul\":2048:2072   */\n  tag_54\n    /* \"#utility.yul\":2066:2071   */\n  dup2\n    /* \"#utility.yul\":2048:2072   */\n  tag_19\n  jump\t// in\ntag_54:\n    /* \"#utility.yul\":2041:2046   */\n  dup2\n    /* \"#utility.yul\":2038:2073   */\n  eq\n    /* \"#utility.yul\":2028:2091   */\n  tag_55\n  jumpi\n    /* \"#utility.yul\":2087:2088   */\n  0x00\n    /* \"#utility.yul\":2084:2085   */\n  0x00\n    /* \"#utility.yul\":2077:2089   */\n  revert\n    /* \"#utility.yul\":2028:2091   */\ntag_55:\n    /* \"#utility.yul\":1975:2097   */\n  pop\n  jump\t// out\n    /* \"#utility.yul\":2103:2246   */\ntag_28:\n    /* \"#utility.yul\":2160:2165   */\n  0x00\n    /* \"#utility.yul\":2191:2197   */\n  dup2\n    /* \"#utility.yul\":2185:2198   */\n  mload\n    /* \"#utility.yul\":2176:2198   */\n  swap1\n  pop\n    /* \"#utility.yul\":2207:2240   */\n  tag_57\n    /* \"#utility.yul\":2234:2239   */\n  dup2\n    /* \"#utility.yul\":2207:2240   */\n  tag_27\n  jump\t// in\ntag_57:\n    /* \"#utility.yul\":2103:2246   */\n  swap3\n  swap2\n  pop\n  pop\n  jump\t// out\n    /* \"#utility.yul\":2252:2603   */\ntag_14:\n    /* \"#utility.yul\":2322:2328   */\n  0x00\n    /* \"#utility.yul\":2371:2373   */\n  0x20\n    /* \"#utility.yul\":2359:2368   */\n  dup3\n    /* \"#utility.yul\":2350:2357   */\n  dup5\n    /* \"#utility.yul\":2346:2369   */\n  sub\n    /* \"#utility.yul\":2342:2374   */\n  slt\n    /* \"#utility.yul\":2339:2458   */\n  iszero\n  tag_59\n  jumpi\n    /* \"#utility.yul\":2377:2456   */\n  tag_60\n  tag_22\n  jump\t// in\ntag_60:\n    /* \"#utility.yul\":2339:2458   */\ntag_59:\n    /* \"#utility.yul\":2497:2498   */\n  0x00\n    /* \"#utility.yul\":2522:2586   */\n  tag_61\n    /* \"#utility.yul\":2578:2585   */\n  dup5\n    /* \"#utility.yul\":2569:2575   */\n  dup3\n    /* \"#utility.yul\":2558:2567   */\n  dup6\n    /* \"#utility.yul\":2554:2576   */\n  add\n    /* \"#utility.yul\":2522:2586   */\n  tag_28\n  jump\t// in\ntag_61:\n    /* \"#utility.yul\":2512:2586   */\n  swap2\n  pop\n    /* \"#utility.yul\":2468:2596   */\n  pop\n    /* \"#utility.yul\":2252:2603   */\n  swap3\n  swap2\n  pop\n  pop\n  jump\t// out\n    /* \"contracts/storage_clq.sol\":247:1662  contract PaidStorage {... */\ntag_17:\n  dataSize(sub_0)\n  dup1\n  dataOffset(sub_0)\n  0x00\n  codecopy\n  0x00\n  return\nstop\n\nsub_0: assembly {\n        /* \"contracts/storage_clq.sol\":247:1662  contract PaidStorage {... */\n      mstore(0x40, 0x80)\n      callvalue\n      dup1\n      iszero\n      tag_1\n      jumpi\n      revert(0x00, 0x00)\n    tag_1:\n      pop\n      jumpi(tag_2, lt(calldatasize, 0x04))\n      shr(0xe0, calldataload(0x00))\n      dup1\n      0xb0dcaa9a\n      gt\n      tag_13\n      jumpi\n      dup1\n      0xb0dcaa9a\n      eq\n      tag_8\n      jumpi\n      dup1\n      0xb69ef8a8\n      eq\n      tag_9\n      jumpi\n      dup1\n      0xdd46f349\n      eq\n      tag_10\n      jumpi\n      dup1\n      0xddca3f43\n      eq\n      tag_11\n      jumpi\n      dup1\n      0xde242ff4\n      eq\n      tag_12\n      jumpi\n      jump(tag_2)\n    tag_13:\n      dup1\n      0x1032112f\n      eq\n      tag_3\n      jumpi\n      dup1\n      0x2e64cec1\n      eq\n      tag_4\n      jumpi\n      dup1\n      0x6057361d\n      eq\n      tag_5\n      jumpi\n      dup1\n      0x69fe0e2d\n      eq\n      tag_6\n      jumpi\n      dup1\n      0x8da5cb5b\n      eq\n      tag_7\n      jumpi\n    tag_2:\n      revert(0x00, 0x00)\n        /* \"contracts/storage_clq.sol\":307:329  IERC20 public clqToken */\n    tag_3:\n      tag_14\n      tag_15\n      jump\t// in\n    tag_14:\n      mload(0x40)\n      tag_16\n      swap2\n      swap1\n      tag_17\n      jump\t// in\n    tag_16:\n      mload(0x40)\n      dup1\n      swap2\n      sub\n      swap1\n      return\n        /* \"contracts/storage_clq.sol\":1064:1153  function retrieve() external view returns (uint256) {... */\n    tag_4:\n      tag_18\n      tag_19\n      jump\t// in\n    tag_18:\n      mload(0x40)\n      tag_20\n      swap2\n      swap1\n      tag_21\n      jump\t// in\n    tag_20:\n      mload(0x40)\n      dup1\n      swap2\n      sub\n      swap1\n      return\n        /* \"contracts/storage_clq.sol\":753:1058  function store(uint256 num) external {... */\n    tag_5:\n      tag_22\n      0x04\n      dup1\n      calldatasize\n      sub\n      dup2\n      add\n      swap1\n      tag_23\n      swap2\n      swap1\n      tag_24\n      jump\t// in\n    tag_23:\n      tag_25\n      jump\t// in\n    tag_22:\n      stop\n        /* \"contracts/storage_clq.sol\":1159:1398  function setFee(uint256 newFee) external {... */\n    tag_6:\n      tag_26\n      0x04\n      dup1\n      calldatasize\n      sub\n      dup2\n      add\n      swap1\n      tag_27\n      swap2\n      swap1\n      tag_24\n      jump\t// in\n    tag_27:\n      tag_28\n      jump\t// in\n    tag_26:\n      stop\n        /* \"contracts/storage_clq.sol\":335:355  address public owner */\n    tag_7:\n      tag_29\n      tag_30\n      jump\t// in\n    tag_29:\n      mload(0x40)\n      tag_31\n      swap2\n      swap1\n      tag_32\n      jump\t// in\n    tag_31:\n      mload(0x40)\n      dup1\n      swap2\n      sub\n      swap1\n      return\n        /* \"contracts/storage_clq.sol\":1405:1520  function checkMyCLQBalance() external view returns (uint256) {... */\n    tag_8:\n      tag_33\n      tag_34\n      jump\t// in\n    tag_33:\n      mload(0x40)\n      tag_35\n      swap2\n      swap1\n      tag_21\n      jump\t// in\n    tag_35:\n      mload(0x40)\n      dup1\n      swap2\n      sub\n      swap1\n      return\n        /* \"contracts/storage_clq.sol\":507:562  uint256 public balance = clqToken.balanceOf(msg.sender) */\n    tag_9:\n      tag_36\n      tag_37\n      jump\t// in\n    tag_36:\n      mload(0x40)\n      tag_38\n      swap2\n      swap1\n      tag_21\n      jump\t// in\n    tag_38:\n      mload(0x40)\n      dup1\n      swap2\n      sub\n      swap1\n      return\n        /* \"contracts/storage_clq.sol\":1527:1660  function checkMyCLQAllowance() external view returns (uint256) {... */\n    tag_10:\n      tag_39\n      tag_40\n      jump\t// in\n    tag_39:\n      mload(0x40)\n      tag_41\n      swap2\n      swap1\n      tag_21\n      jump\t// in\n    tag_41:\n      mload(0x40)\n      dup1\n      swap2\n      sub\n      swap1\n      return\n        /* \"contracts/storage_clq.sol\":361:395  uint256 public fee = 10 * 10 ** 18 */\n    tag_11:\n      tag_42\n      tag_43\n      jump\t// in\n    tag_42:\n      mload(0x40)\n      tag_44\n      swap2\n      swap1\n      tag_21\n      jump\t// in\n    tag_44:\n      mload(0x40)\n      dup1\n      swap2\n      sub\n      swap1\n      return\n        /* \"contracts/storage_clq.sol\":429:501  uint256 public allowance = clqToken.allowance(msg.sender, address(this)) */\n    tag_12:\n      tag_45\n      tag_46\n      jump\t// in\n    tag_45:\n      mload(0x40)\n      tag_47\n      swap2\n      swap1\n      tag_21\n      jump\t// in\n    tag_47:\n      mload(0x40)\n      dup1\n      swap2\n      sub\n      swap1\n      return\n        /* \"contracts/storage_clq.sol\":307:329  IERC20 public clqToken */\n    tag_15:\n      0x00\n      0x00\n      swap1\n      sload\n      swap1\n      0x0100\n      exp\n      swap1\n      div\n      0xffffffffffffffffffffffffffffffffffffffff\n      and\n      dup2\n      jump\t// out\n        /* \"contracts/storage_clq.sol\":1064:1153  function retrieve() external view returns (uint256) {... */\n    tag_19:\n        /* \"contracts/storage_clq.sol\":1107:1114  uint256 */\n      0x00\n        /* \"contracts/storage_clq.sol\":1140:1146  number */\n      sload(0x03)\n        /* \"contracts/storage_clq.sol\":1133:1146  return number */\n      swap1\n      pop\n        /* \"contracts/storage_clq.sol\":1064:1153  function retrieve() external view returns (uint256) {... */\n      swap1\n      jump\t// out\n        /* \"contracts/storage_clq.sol\":753:1058  function store(uint256 num) external {... */\n    tag_25:\n        /* \"contracts/storage_clq.sol\":852:855  fee */\n      sload(0x02)\n        /* \"contracts/storage_clq.sol\":804:812  clqToken */\n      0x00\n      0x00\n      swap1\n      sload\n      swap1\n      0x0100\n      exp\n      swap1\n      div\n      0xffffffffffffffffffffffffffffffffffffffff\n      and\n        /* \"contracts/storage_clq.sol\":804:822  clqToken.allowance */\n      0xffffffffffffffffffffffffffffffffffffffff\n      and\n      0xdd62ed3e\n        /* \"contracts/storage_clq.sol\":823:833  msg.sender */\n      caller\n        /* \"contracts/storage_clq.sol\":843:847  this */\n      address\n        /* \"contracts/storage_clq.sol\":804:849  clqToken.allowance(msg.sender, address(this)) */\n      mload(0x40)\n      dup4\n      0xffffffff\n      and\n      0xe0\n      shl\n      dup2\n      mstore\n      0x04\n      add\n      tag_50\n      swap3\n      swap2\n      swap1\n      tag_51\n      jump\t// in\n    tag_50:\n      0x20\n      mload(0x40)\n      dup1\n      dup4\n      sub\n      dup2\n      dup7\n      gas\n      staticcall\n      iszero\n      dup1\n      iszero\n      tag_53\n      jumpi\n      returndatacopy(0x00, 0x00, returndatasize)\n      revert(0x00, returndatasize)\n    tag_53:\n      pop\n      pop\n      pop\n      pop\n      mload(0x40)\n      returndatasize\n      not(0x1f)\n      0x1f\n      dup3\n      add\n      and\n      dup3\n      add\n      dup1\n      0x40\n      mstore\n      pop\n      dup2\n      add\n      swap1\n      tag_54\n      swap2\n      swap1\n      tag_55\n      jump\t// in\n    tag_54:\n        /* \"contracts/storage_clq.sol\":804:855  clqToken.allowance(msg.sender, address(this)) < fee */\n      lt\n        /* \"contracts/storage_clq.sol\":800:887  if (clqToken.allowance(msg.sender, address(this)) < fee) revert InsufficientAllowance() */\n      iszero\n      tag_56\n      jumpi\n        /* \"contracts/storage_clq.sol\":864:887  InsufficientAllowance() */\n      mload(0x40)\n      0x13be252b00000000000000000000000000000000000000000000000000000000\n      dup2\n      mstore\n      0x04\n      add\n      mload(0x40)\n      dup1\n      swap2\n      sub\n      swap1\n      revert\n        /* \"contracts/storage_clq.sol\":800:887  if (clqToken.allowance(msg.sender, address(this)) < fee) revert InsufficientAllowance() */\n    tag_56:\n        /* \"contracts/storage_clq.sol\":934:937  fee */\n      sload(0x02)\n        /* \"contracts/storage_clq.sol\":901:909  clqToken */\n      0x00\n      0x00\n      swap1\n      sload\n      swap1\n      0x0100\n      exp\n      swap1\n      div\n      0xffffffffffffffffffffffffffffffffffffffff\n      and\n        /* \"contracts/storage_clq.sol\":901:919  clqToken.balanceOf */\n      0xffffffffffffffffffffffffffffffffffffffff\n      and\n      0x70a08231\n        /* \"contracts/storage_clq.sol\":920:930  msg.sender */\n      caller\n        /* \"contracts/storage_clq.sol\":901:931  clqToken.balanceOf(msg.sender) */\n      mload(0x40)\n      dup3\n      0xffffffff\n      and\n      0xe0\n      shl\n      dup2\n      mstore\n      0x04\n      add\n      tag_57\n      swap2\n      swap1\n      tag_32\n      jump\t// in\n    tag_57:\n      0x20\n      mload(0x40)\n      dup1\n      dup4\n      sub\n      dup2\n      dup7\n      gas\n      staticcall\n      iszero\n      dup1\n      iszero\n      tag_59\n      jumpi\n      returndatacopy(0x00, 0x00, returndatasize)\n      revert(0x00, returndatasize)\n    tag_59:\n      pop\n      pop\n      pop\n      pop\n      mload(0x40)\n      returndatasize\n      not(0x1f)\n      0x1f\n      dup3\n      add\n      and\n      dup3\n      add\n      dup1\n      0x40\n      mstore\n      pop\n      dup2\n      add\n      swap1\n      tag_60\n      swap2\n      swap1\n      tag_55\n      jump\t// in\n    tag_60:\n        /* \"contracts/storage_clq.sol\":901:937  clqToken.balanceOf(msg.sender) < fee */\n      lt\n        /* \"contracts/storage_clq.sol\":897:967  if (clqToken.balanceOf(msg.sender) < fee) revert InsufficientBalance() */\n      iszero\n      tag_61\n      jumpi\n        /* \"contracts/storage_clq.sol\":946:967  InsufficientBalance() */\n      mload(0x40)\n      0xf4d678b800000000000000000000000000000000000000000000000000000000\n      dup2\n      mstore\n      0x04\n      add\n      mload(0x40)\n      dup1\n      swap2\n      sub\n      swap1\n      revert\n        /* \"contracts/storage_clq.sol\":897:967  if (clqToken.balanceOf(msg.sender) < fee) revert InsufficientBalance() */\n    tag_61:\n        /* \"contracts/storage_clq.sol\":1048:1051  num */\n      dup1\n        /* \"contracts/storage_clq.sol\":1039:1045  number */\n      0x03\n        /* \"contracts/storage_clq.sol\":1039:1051  number = num */\n      dup2\n      swap1\n      sstore\n      pop\n        /* \"contracts/storage_clq.sol\":753:1058  function store(uint256 num) external {... */\n      pop\n      jump\t// out\n        /* \"contracts/storage_clq.sol\":1159:1398  function setFee(uint256 newFee) external {... */\n    tag_28:\n        /* \"contracts/storage_clq.sol\":1232:1237  owner */\n      0x01\n      0x00\n      swap1\n      sload\n      swap1\n      0x0100\n      exp\n      swap1\n      div\n      0xffffffffffffffffffffffffffffffffffffffff\n      and\n        /* \"contracts/storage_clq.sol\":1218:1237  msg.sender == owner */\n      0xffffffffffffffffffffffffffffffffffffffff\n      and\n        /* \"contracts/storage_clq.sol\":1218:1228  msg.sender */\n      caller\n        /* \"contracts/storage_clq.sol\":1218:1237  msg.sender == owner */\n      0xffffffffffffffffffffffffffffffffffffffff\n      and\n      eq\n        /* \"contracts/storage_clq.sol\":1210:1252  require(msg.sender == owner, \"Only owner\") */\n      tag_63\n      jumpi\n      mload(0x40)\n      0x08c379a000000000000000000000000000000000000000000000000000000000\n      dup2\n      mstore\n      0x04\n      add\n      tag_64\n      swap1\n      tag_65\n      jump\t// in\n    tag_64:\n      mload(0x40)\n      dup1\n      swap2\n      sub\n      swap1\n      revert\n    tag_63:\n        /* \"contracts/storage_clq.sol\":1274:1282  clqToken */\n      0x00\n      0x00\n      swap1\n      sload\n      swap1\n      0x0100\n      exp\n      swap1\n      div\n      0xffffffffffffffffffffffffffffffffffffffff\n      and\n        /* \"contracts/storage_clq.sol\":1274:1292  clqToken.allowance */\n      0xffffffffffffffffffffffffffffffffffffffff\n      and\n      0xdd62ed3e\n        /* \"contracts/storage_clq.sol\":1293:1303  msg.sender */\n      caller\n        /* \"contracts/storage_clq.sol\":1313:1317  this */\n      address\n        /* \"contracts/storage_clq.sol\":1274:1319  clqToken.allowance(msg.sender, address(this)) */\n      mload(0x40)\n      dup4\n      0xffffffff\n      and\n      0xe0\n      shl\n      dup2\n      mstore\n      0x04\n      add\n      tag_66\n      swap3\n      swap2\n      swap1\n      tag_51\n      jump\t// in\n    tag_66:\n      0x20\n      mload(0x40)\n      dup1\n      dup4\n      sub\n      dup2\n      dup7\n      gas\n      staticcall\n      iszero\n      dup1\n      iszero\n      tag_68\n      jumpi\n      returndatacopy(0x00, 0x00, returndatasize)\n      revert(0x00, returndatasize)\n    tag_68:\n      pop\n      pop\n      pop\n      pop\n      mload(0x40)\n      returndatasize\n      not(0x1f)\n      0x1f\n      dup3\n      add\n      and\n      dup3\n      add\n      dup1\n      0x40\n      mstore\n      pop\n      dup2\n      add\n      swap1\n      tag_69\n      swap2\n      swap1\n      tag_55\n      jump\t// in\n    tag_69:\n        /* \"contracts/storage_clq.sol\":1262:1271  allowance */\n      0x04\n        /* \"contracts/storage_clq.sol\":1262:1319  allowance = clqToken.allowance(msg.sender, address(this)) */\n      dup2\n      swap1\n      sstore\n      pop\n        /* \"contracts/storage_clq.sol\":1339:1347  clqToken */\n      0x00\n      0x00\n      swap1\n      sload\n      swap1\n      0x0100\n      exp\n      swap1\n      div\n      0xffffffffffffffffffffffffffffffffffffffff\n      and\n        /* \"contracts/storage_clq.sol\":1339:1357  clqToken.balanceOf */\n      0xffffffffffffffffffffffffffffffffffffffff\n      and\n      0x70a08231\n        /* \"contracts/storage_clq.sol\":1358:1368  msg.sender */\n      caller\n        /* \"contracts/storage_clq.sol\":1339:1369  clqToken.balanceOf(msg.sender) */\n      mload(0x40)\n      dup3\n      0xffffffff\n      and\n      0xe0\n      shl\n      dup2\n      mstore\n      0x04\n      add\n      tag_70\n      swap2\n      swap1\n      tag_32\n      jump\t// in\n    tag_70:\n      0x20\n      mload(0x40)\n      dup1\n      dup4\n      sub\n      dup2\n      dup7\n      gas\n      staticcall\n      iszero\n      dup1\n      iszero\n      tag_72\n      jumpi\n      returndatacopy(0x00, 0x00, returndatasize)\n      revert(0x00, returndatasize)\n    tag_72:\n      pop\n      pop\n      pop\n      pop\n      mload(0x40)\n      returndatasize\n      not(0x1f)\n      0x1f\n      dup3\n      add\n      and\n      dup3\n      add\n      dup1\n      0x40\n      mstore\n      pop\n      dup2\n      add\n      swap1\n      tag_73\n      swap2\n      swap1\n      tag_55\n      jump\t// in\n    tag_73:\n        /* \"contracts/storage_clq.sol\":1329:1336  balance */\n      0x05\n        /* \"contracts/storage_clq.sol\":1329:1369  balance = clqToken.balanceOf(msg.sender) */\n      dup2\n      swap1\n      sstore\n      pop\n        /* \"contracts/storage_clq.sol\":1385:1391  newFee */\n      dup1\n        /* \"contracts/storage_clq.sol\":1379:1382  fee */\n      0x02\n        /* \"contracts/storage_clq.sol\":1379:1391  fee = newFee */\n      dup2\n      swap1\n      sstore\n      pop\n        /* \"contracts/storage_clq.sol\":1159:1398  function setFee(uint256 newFee) external {... */\n      pop\n      jump\t// out\n        /* \"contracts/storage_clq.sol\":335:355  address public owner */\n    tag_30:\n      0x01\n      0x00\n      swap1\n      sload\n      swap1\n      0x0100\n      exp\n      swap1\n      div\n      0xffffffffffffffffffffffffffffffffffffffff\n      and\n      dup2\n      jump\t// out\n        /* \"contracts/storage_clq.sol\":1405:1520  function checkMyCLQBalance() external view returns (uint256) {... */\n    tag_34:\n        /* \"contracts/storage_clq.sol\":1457:1464  uint256 */\n      0x00\n        /* \"contracts/storage_clq.sol\":1483:1491  clqToken */\n      0x00\n      0x00\n      swap1\n      sload\n      swap1\n      0x0100\n      exp\n      swap1\n      div\n      0xffffffffffffffffffffffffffffffffffffffff\n      and\n        /* \"contracts/storage_clq.sol\":1483:1501  clqToken.balanceOf */\n      0xffffffffffffffffffffffffffffffffffffffff\n      and\n      0x70a08231\n        /* \"contracts/storage_clq.sol\":1502:1512  msg.sender */\n      caller\n        /* \"contracts/storage_clq.sol\":1483:1513  clqToken.balanceOf(msg.sender) */\n      mload(0x40)\n      dup3\n      0xffffffff\n      and\n      0xe0\n      shl\n      dup2\n      mstore\n      0x04\n      add\n      tag_75\n      swap2\n      swap1\n      tag_32\n      jump\t// in\n    tag_75:\n      0x20\n      mload(0x40)\n      dup1\n      dup4\n      sub\n      dup2\n      dup7\n      gas\n      staticcall\n      iszero\n      dup1\n      iszero\n      tag_77\n      jumpi\n      returndatacopy(0x00, 0x00, returndatasize)\n      revert(0x00, returndatasize)\n    tag_77:\n      pop\n      pop\n      pop\n      pop\n      mload(0x40)\n      returndatasize\n      not(0x1f)\n      0x1f\n      dup3\n      add\n      and\n      dup3\n      add\n      dup1\n      0x40\n      mstore\n      pop\n      dup2\n      add\n      swap1\n      tag_78\n      swap2\n      swap1\n      tag_55\n      jump\t// in\n    tag_78:\n        /* \"contracts/storage_clq.sol\":1476:1513  return clqToken.balanceOf(msg.sender) */\n      swap1\n      pop\n        /* \"contracts/storage_clq.sol\":1405:1520  function checkMyCLQBalance() external view returns (uint256) {... */\n      swap1\n      jump\t// out\n        /* \"contracts/storage_clq.sol\":507:562  uint256 public balance = clqToken.balanceOf(msg.sender) */\n    tag_37:\n      sload(0x05)\n      dup2\n      jump\t// out\n        /* \"contracts/storage_clq.sol\":1527:1660  function checkMyCLQAllowance() external view returns (uint256) {... */\n    tag_40:\n        /* \"contracts/storage_clq.sol\":1581:1588  uint256 */\n      0x00\n        /* \"contracts/storage_clq.sol\":1607:1615  clqToken */\n      0x00\n      0x00\n      swap1\n      sload\n      swap1\n      0x0100\n      exp\n      swap1\n      div\n      0xffffffffffffffffffffffffffffffffffffffff\n      and\n        /* \"contracts/storage_clq.sol\":1607:1625  clqToken.allowance */\n      0xffffffffffffffffffffffffffffffffffffffff\n      and\n      0xdd62ed3e\n        /* \"contracts/storage_clq.sol\":1626:1636  msg.sender */\n      caller\n        /* \"contracts/storage_clq.sol\":1647:1651  this */\n      address\n        /* \"contracts/storage_clq.sol\":1607:1653  clqToken.allowance(msg.sender,  address(this)) */\n      mload(0x40)\n      dup4\n      0xffffffff\n      and\n      0xe0\n      shl\n      dup2\n      mstore\n      0x04\n      add\n      tag_80\n      swap3\n      swap2\n      swap1\n      tag_51\n      jump\t// in\n    tag_80:\n      0x20\n      mload(0x40)\n      dup1\n      dup4\n      sub\n      dup2\n      dup7\n      gas\n      staticcall\n      iszero\n      dup1\n      iszero\n      tag_82\n      jumpi\n      returndatacopy(0x00, 0x00, returndatasize)\n      revert(0x00, returndatasize)\n    tag_82:\n      pop\n      pop\n      pop\n      pop\n      mload(0x40)\n      returndatasize\n      not(0x1f)\n      0x1f\n      dup3\n      add\n      and\n      dup3\n      add\n      dup1\n      0x40\n      mstore\n      pop\n      dup2\n      add\n      swap1\n      tag_83\n      swap2\n      swap1\n      tag_55\n      jump\t// in\n    tag_83:\n        /* \"contracts/storage_clq.sol\":1600:1653  return clqToken.allowance(msg.sender,  address(this)) */\n      swap1\n      pop\n        /* \"contracts/storage_clq.sol\":1527:1660  function checkMyCLQAllowance() external view returns (uint256) {... */\n      swap1\n      jump\t// out\n        /* \"contracts/storage_clq.sol\":361:395  uint256 public fee = 10 * 10 ** 18 */\n    tag_43:\n      sload(0x02)\n      dup2\n      jump\t// out\n        /* \"contracts/storage_clq.sol\":429:501  uint256 public allowance = clqToken.allowance(msg.sender, address(this)) */\n    tag_46:\n      sload(0x04)\n      dup2\n      jump\t// out\n        /* \"#utility.yul\":7:133   */\n    tag_84:\n        /* \"#utility.yul\":44:51   */\n      0x00\n        /* \"#utility.yul\":84:126   */\n      0xffffffffffffffffffffffffffffffffffffffff\n        /* \"#utility.yul\":77:82   */\n      dup3\n        /* \"#utility.yul\":73:127   */\n      and\n        /* \"#utility.yul\":62:127   */\n      swap1\n      pop\n        /* \"#utility.yul\":7:133   */\n      swap2\n      swap1\n      pop\n      jump\t// out\n        /* \"#utility.yul\":139:199   */\n    tag_85:\n        /* \"#utility.yul\":167:170   */\n      0x00\n        /* \"#utility.yul\":188:193   */\n      dup2\n        /* \"#utility.yul\":181:193   */\n      swap1\n      pop\n        /* \"#utility.yul\":139:199   */\n      swap2\n      swap1\n      pop\n      jump\t// out\n        /* \"#utility.yul\":205:347   */\n    tag_86:\n        /* \"#utility.yul\":255:264   */\n      0x00\n        /* \"#utility.yul\":288:341   */\n      tag_107\n        /* \"#utility.yul\":306:340   */\n      tag_108\n        /* \"#utility.yul\":315:339   */\n      tag_109\n        /* \"#utility.yul\":333:338   */\n      dup5\n        /* \"#utility.yul\":315:339   */\n      tag_84\n      jump\t// in\n    tag_109:\n        /* \"#utility.yul\":306:340   */\n      tag_85\n      jump\t// in\n    tag_108:\n        /* \"#utility.yul\":288:341   */\n      tag_84\n      jump\t// in\n    tag_107:\n        /* \"#utility.yul\":275:341   */\n      swap1\n      pop\n        /* \"#utility.yul\":205:347   */\n      swap2\n      swap1\n      pop\n      jump\t// out\n        /* \"#utility.yul\":353:479   */\n    tag_87:\n        /* \"#utility.yul\":403:412   */\n      0x00\n        /* \"#utility.yul\":436:473   */\n      tag_111\n        /* \"#utility.yul\":467:472   */\n      dup3\n        /* \"#utility.yul\":436:473   */\n      tag_86\n      jump\t// in\n    tag_111:\n        /* \"#utility.yul\":423:473   */\n      swap1\n      pop\n        /* \"#utility.yul\":353:479   */\n      swap2\n      swap1\n      pop\n      jump\t// out\n        /* \"#utility.yul\":485:625   */\n    tag_88:\n        /* \"#utility.yul\":549:558   */\n      0x00\n        /* \"#utility.yul\":582:619   */\n      tag_113\n        /* \"#utility.yul\":613:618   */\n      dup3\n        /* \"#utility.yul\":582:619   */\n      tag_87\n      jump\t// in\n    tag_113:\n        /* \"#utility.yul\":569:619   */\n      swap1\n      pop\n        /* \"#utility.yul\":485:625   */\n      swap2\n      swap1\n      pop\n      jump\t// out\n        /* \"#utility.yul\":631:790   */\n    tag_89:\n        /* \"#utility.yul\":732:783   */\n      tag_115\n        /* \"#utility.yul\":777:782   */\n      dup2\n        /* \"#utility.yul\":732:783   */\n      tag_88\n      jump\t// in\n    tag_115:\n        /* \"#utility.yul\":727:730   */\n      dup3\n        /* \"#utility.yul\":720:784   */\n      mstore\n        /* \"#utility.yul\":631:790   */\n      pop\n      pop\n      jump\t// out\n        /* \"#utility.yul\":796:1046   */\n    tag_17:\n        /* \"#utility.yul\":903:907   */\n      0x00\n        /* \"#utility.yul\":941:943   */\n      0x20\n        /* \"#utility.yul\":930:939   */\n      dup3\n        /* \"#utility.yul\":926:944   */\n      add\n        /* \"#utility.yul\":918:944   */\n      swap1\n      pop\n        /* \"#utility.yul\":954:1039   */\n      tag_117\n        /* \"#utility.yul\":1036:1037   */\n      0x00\n        /* \"#utility.yul\":1025:1034   */\n      dup4\n        /* \"#utility.yul\":1021:1038   */\n      add\n        /* \"#utility.yul\":1012:1018   */\n      dup5\n        /* \"#utility.yul\":954:1039   */\n      tag_89\n      jump\t// in\n    tag_117:\n        /* \"#utility.yul\":796:1046   */\n      swap3\n      swap2\n      pop\n      pop\n      jump\t// out\n        /* \"#utility.yul\":1052:1129   */\n    tag_90:\n        /* \"#utility.yul\":1089:1096   */\n      0x00\n        /* \"#utility.yul\":1118:1123   */\n      dup2\n        /* \"#utility.yul\":1107:1123   */\n      swap1\n      pop\n        /* \"#utility.yul\":1052:1129   */\n      swap2\n      swap1\n      pop\n      jump\t// out\n        /* \"#utility.yul\":1135:1253   */\n    tag_91:\n        /* \"#utility.yul\":1222:1246   */\n      tag_120\n        /* \"#utility.yul\":1240:1245   */\n      dup2\n        /* \"#utility.yul\":1222:1246   */\n      tag_90\n      jump\t// in\n    tag_120:\n        /* \"#utility.yul\":1217:1220   */\n      dup3\n        /* \"#utility.yul\":1210:1247   */\n      mstore\n        /* \"#utility.yul\":1135:1253   */\n      pop\n      pop\n      jump\t// out\n        /* \"#utility.yul\":1259:1481   */\n    tag_21:\n        /* \"#utility.yul\":1352:1356   */\n      0x00\n        /* \"#utility.yul\":1390:1392   */\n      0x20\n        /* \"#utility.yul\":1379:1388   */\n      dup3\n        /* \"#utility.yul\":1375:1393   */\n      add\n        /* \"#utility.yul\":1367:1393   */\n      swap1\n      pop\n        /* \"#utility.yul\":1403:1474   */\n      tag_122\n        /* \"#utility.yul\":1471:1472   */\n      0x00\n        /* \"#utility.yul\":1460:1469   */\n      dup4\n        /* \"#utility.yul\":1456:1473   */\n      add\n        /* \"#utility.yul\":1447:1453   */\n      dup5\n        /* \"#utility.yul\":1403:1474   */\n      tag_91\n      jump\t// in\n    tag_122:\n        /* \"#utility.yul\":1259:1481   */\n      swap3\n      swap2\n      pop\n      pop\n      jump\t// out\n        /* \"#utility.yul\":1568:1685   */\n    tag_93:\n        /* \"#utility.yul\":1677:1678   */\n      0x00\n        /* \"#utility.yul\":1674:1675   */\n      0x00\n        /* \"#utility.yul\":1667:1679   */\n      revert\n        /* \"#utility.yul\":1814:1936   */\n    tag_95:\n        /* \"#utility.yul\":1887:1911   */\n      tag_127\n        /* \"#utility.yul\":1905:1910   */\n      dup2\n        /* \"#utility.yul\":1887:1911   */\n      tag_90\n      jump\t// in\n    tag_127:\n        /* \"#utility.yul\":1880:1885   */\n      dup2\n        /* \"#utility.yul\":1877:1912   */\n      eq\n        /* \"#utility.yul\":1867:1930   */\n      tag_128\n      jumpi\n        /* \"#utility.yul\":1926:1927   */\n      0x00\n        /* \"#utility.yul\":1923:1924   */\n      0x00\n        /* \"#utility.yul\":1916:1928   */\n      revert\n        /* \"#utility.yul\":1867:1930   */\n    tag_128:\n        /* \"#utility.yul\":1814:1936   */\n      pop\n      jump\t// out\n        /* \"#utility.yul\":1942:2081   */\n    tag_96:\n        /* \"#utility.yul\":1988:1993   */\n      0x00\n        /* \"#utility.yul\":2026:2032   */\n      dup2\n        /* \"#utility.yul\":2013:2033   */\n      calldataload\n        /* \"#utility.yul\":2004:2033   */\n      swap1\n      pop\n        /* \"#utility.yul\":2042:2075   */\n      tag_130\n        /* \"#utility.yul\":2069:2074   */\n      dup2\n        /* \"#utility.yul\":2042:2075   */\n      tag_95\n      jump\t// in\n    tag_130:\n        /* \"#utility.yul\":1942:2081   */\n      swap3\n      swap2\n      pop\n      pop\n      jump\t// out\n        /* \"#utility.yul\":2087:2416   */\n    tag_24:\n        /* \"#utility.yul\":2146:2152   */\n      0x00\n        /* \"#utility.yul\":2195:2197   */\n      0x20\n        /* \"#utility.yul\":2183:2192   */\n      dup3\n        /* \"#utility.yul\":2174:2181   */\n      dup5\n        /* \"#utility.yul\":2170:2193   */\n      sub\n        /* \"#utility.yul\":2166:2198   */\n      slt\n        /* \"#utility.yul\":2163:2282   */\n      iszero\n      tag_132\n      jumpi\n        /* \"#utility.yul\":2201:2280   */\n      tag_133\n      tag_93\n      jump\t// in\n    tag_133:\n        /* \"#utility.yul\":2163:2282   */\n    tag_132:\n        /* \"#utility.yul\":2321:2322   */\n      0x00\n        /* \"#utility.yul\":2346:2399   */\n      tag_134\n        /* \"#utility.yul\":2391:2398   */\n      dup5\n        /* \"#utility.yul\":2382:2388   */\n      dup3\n        /* \"#utility.yul\":2371:2380   */\n      dup6\n        /* \"#utility.yul\":2367:2389   */\n      add\n        /* \"#utility.yul\":2346:2399   */\n      tag_96\n      jump\t// in\n    tag_134:\n        /* \"#utility.yul\":2336:2399   */\n      swap2\n      pop\n        /* \"#utility.yul\":2292:2409   */\n      pop\n        /* \"#utility.yul\":2087:2416   */\n      swap3\n      swap2\n      pop\n      pop\n      jump\t// out\n        /* \"#utility.yul\":2422:2518   */\n    tag_97:\n        /* \"#utility.yul\":2459:2466   */\n      0x00\n        /* \"#utility.yul\":2488:2512   */\n      tag_136\n        /* \"#utility.yul\":2506:2511   */\n      dup3\n        /* \"#utility.yul\":2488:2512   */\n      tag_84\n      jump\t// in\n    tag_136:\n        /* \"#utility.yul\":2477:2512   */\n      swap1\n      pop\n        /* \"#utility.yul\":2422:2518   */\n      swap2\n      swap1\n      pop\n      jump\t// out\n        /* \"#utility.yul\":2524:2642   */\n    tag_98:\n        /* \"#utility.yul\":2611:2635   */\n      tag_138\n        /* \"#utility.yul\":2629:2634   */\n      dup2\n        /* \"#utility.yul\":2611:2635   */\n      tag_97\n      jump\t// in\n    tag_138:\n        /* \"#utility.yul\":2606:2609   */\n      dup3\n        /* \"#utility.yul\":2599:2636   */\n      mstore\n        /* \"#utility.yul\":2524:2642   */\n      pop\n      pop\n      jump\t// out\n        /* \"#utility.yul\":2648:2870   */\n    tag_32:\n        /* \"#utility.yul\":2741:2745   */\n      0x00\n        /* \"#utility.yul\":2779:2781   */\n      0x20\n        /* \"#utility.yul\":2768:2777   */\n      dup3\n        /* \"#utility.yul\":2764:2782   */\n      add\n        /* \"#utility.yul\":2756:2782   */\n      swap1\n      pop\n        /* \"#utility.yul\":2792:2863   */\n      tag_140\n        /* \"#utility.yul\":2860:2861   */\n      0x00\n        /* \"#utility.yul\":2849:2858   */\n      dup4\n        /* \"#utility.yul\":2845:2862   */\n      add\n        /* \"#utility.yul\":2836:2842   */\n      dup5\n        /* \"#utility.yul\":2792:2863   */\n      tag_98\n      jump\t// in\n    tag_140:\n        /* \"#utility.yul\":2648:2870   */\n      swap3\n      swap2\n      pop\n      pop\n      jump\t// out\n        /* \"#utility.yul\":2876:3208   */\n    tag_51:\n        /* \"#utility.yul\":2997:3001   */\n      0x00\n        /* \"#utility.yul\":3035:3037   */\n      0x40\n        /* \"#utility.yul\":3024:3033   */\n      dup3\n        /* \"#utility.yul\":3020:3038   */\n      add\n        /* \"#utility.yul\":3012:3038   */\n      swap1\n      pop\n        /* \"#utility.yul\":3048:3119   */\n      tag_142\n        /* \"#utility.yul\":3116:3117   */\n      0x00\n        /* \"#utility.yul\":3105:3114   */\n      dup4\n        /* \"#utility.yul\":3101:3118   */\n      add\n        /* \"#utility.yul\":3092:3098   */\n      dup6\n        /* \"#utility.yul\":3048:3119   */\n      tag_98\n      jump\t// in\n    tag_142:\n        /* \"#utility.yul\":3129:3201   */\n      tag_143\n        /* \"#utility.yul\":3197:3199   */\n      0x20\n        /* \"#utility.yul\":3186:3195   */\n      dup4\n        /* \"#utility.yul\":3182:3200   */\n      add\n        /* \"#utility.yul\":3173:3179   */\n      dup5\n        /* \"#utility.yul\":3129:3201   */\n      tag_98\n      jump\t// in\n    tag_143:\n        /* \"#utility.yul\":2876:3208   */\n      swap4\n      swap3\n      pop\n      pop\n      pop\n      jump\t// out\n        /* \"#utility.yul\":3214:3357   */\n    tag_99:\n        /* \"#utility.yul\":3271:3276   */\n      0x00\n        /* \"#utility.yul\":3302:3308   */\n      dup2\n        /* \"#utility.yul\":3296:3309   */\n      mload\n        /* \"#utility.yul\":3287:3309   */\n      swap1\n      pop\n        /* \"#utility.yul\":3318:3351   */\n      tag_145\n        /* \"#utility.yul\":3345:3350   */\n      dup2\n        /* \"#utility.yul\":3318:3351   */\n      tag_95\n      jump\t// in\n    tag_145:\n        /* \"#utility.yul\":3214:3357   */\n      swap3\n      swap2\n      pop\n      pop\n      jump\t// out\n        /* \"#utility.yul\":3363:3714   */\n    tag_55:\n        /* \"#utility.yul\":3433:3439   */\n      0x00\n        /* \"#utility.yul\":3482:3484   */\n      0x20\n        /* \"#utility.yul\":3470:3479   */\n      dup3\n        /* \"#utility.yul\":3461:3468   */\n      dup5\n        /* \"#utility.yul\":3457:3480   */\n      sub\n        /* \"#utility.yul\":3453:3485   */\n      slt\n        /* \"#utility.yul\":3450:3569   */\n      iszero\n      tag_147\n      jumpi\n        /* \"#utility.yul\":3488:3567   */\n      tag_148\n      tag_93\n      jump\t// in\n    tag_148:\n        /* \"#utility.yul\":3450:3569   */\n    tag_147:\n        /* \"#utility.yul\":3608:3609   */\n      0x00\n        /* \"#utility.yul\":3633:3697   */\n      tag_149\n        /* \"#utility.yul\":3689:3696   */\n      dup5\n        /* \"#utility.yul\":3680:3686   */\n      dup3\n        /* \"#utility.yul\":3669:3678   */\n      dup6\n        /* \"#utility.yul\":3665:3687   */\n      add\n        /* \"#utility.yul\":3633:3697   */\n      tag_99\n      jump\t// in\n    tag_149:\n        /* \"#utility.yul\":3623:3697   */\n      swap2\n      pop\n        /* \"#utility.yul\":3579:3707   */\n      pop\n        /* \"#utility.yul\":3363:3714   */\n      swap3\n      swap2\n      pop\n      pop\n      jump\t// out\n        /* \"#utility.yul\":3720:3889   */\n    tag_100:\n        /* \"#utility.yul\":3804:3815   */\n      0x00\n        /* \"#utility.yul\":3838:3844   */\n      dup3\n        /* \"#utility.yul\":3833:3836   */\n      dup3\n        /* \"#utility.yul\":3826:3845   */\n      mstore\n        /* \"#utility.yul\":3878:3882   */\n      0x20\n        /* \"#utility.yul\":3873:3876   */\n      dup3\n        /* \"#utility.yul\":3869:3883   */\n      add\n        /* \"#utility.yul\":3854:3883   */\n      swap1\n      pop\n        /* \"#utility.yul\":3720:3889   */\n      swap3\n      swap2\n      pop\n      pop\n      jump\t// out\n        /* \"#utility.yul\":3895:4055   */\n    tag_101:\n        /* \"#utility.yul\":4035:4047   */\n      0x4f6e6c79206f776e657200000000000000000000000000000000000000000000\n        /* \"#utility.yul\":4031:4032   */\n      0x00\n        /* \"#utility.yul\":4023:4029   */\n      dup3\n        /* \"#utility.yul\":4019:4033   */\n      add\n        /* \"#utility.yul\":4012:4048   */\n      mstore\n        /* \"#utility.yul\":3895:4055   */\n      pop\n      jump\t// out\n        /* \"#utility.yul\":4061:4427   */\n    tag_102:\n        /* \"#utility.yul\":4203:4206   */\n      0x00\n        /* \"#utility.yul\":4224:4291   */\n      tag_153\n        /* \"#utility.yul\":4288:4290   */\n      0x0a\n        /* \"#utility.yul\":4283:4286   */\n      dup4\n        /* \"#utility.yul\":4224:4291   */\n      tag_100\n      jump\t// in\n    tag_153:\n        /* \"#utility.yul\":4217:4291   */\n      swap2\n      pop\n        /* \"#utility.yul\":4300:4393   */\n      tag_154\n        /* \"#utility.yul\":4389:4392   */\n      dup3\n        /* \"#utility.yul\":4300:4393   */\n      tag_101\n      jump\t// in\n    tag_154:\n        /* \"#utility.yul\":4418:4420   */\n      0x20\n        /* \"#utility.yul\":4413:4416   */\n      dup3\n        /* \"#utility.yul\":4409:4421   */\n      add\n        /* \"#utility.yul\":4402:4421   */\n      swap1\n      pop\n        /* \"#utility.yul\":4061:4427   */\n      swap2\n      swap1\n      pop\n      jump\t// out\n        /* \"#utility.yul\":4433:4852   */\n    tag_65:\n        /* \"#utility.yul\":4599:4603   */\n      0x00\n        /* \"#utility.yul\":4637:4639   */\n      0x20\n        /* \"#utility.yul\":4626:4635   */\n      dup3\n        /* \"#utility.yul\":4622:4640   */\n      add\n        /* \"#utility.yul\":4614:4640   */\n      swap1\n      pop\n        /* \"#utility.yul\":4686:4695   */\n      dup2\n        /* \"#utility.yul\":4680:4684   */\n      dup2\n        /* \"#utility.yul\":4676:4696   */\n      sub\n        /* \"#utility.yul\":4672:4673   */\n      0x00\n        /* \"#utility.yul\":4661:4670   */\n      dup4\n        /* \"#utility.yul\":4657:4674   */\n      add\n        /* \"#utility.yul\":4650:4697   */\n      mstore\n        /* \"#utility.yul\":4714:4845   */\n      tag_156\n        /* \"#utility.yul\":4840:4844   */\n      dup2\n        /* \"#utility.yul\":4714:4845   */\n      tag_102\n      jump\t// in\n    tag_156:\n        /* \"#utility.yul\":4706:4845   */\n      swap1\n      pop\n        /* \"#utility.yul\":4433:4852   */\n      swap2\n      swap1\n      pop\n      jump\t// out\n\n    auxdata: 0xa26469706673582212204b1aed99052814e3bf09b391f1f1926fa69e5e0cee1d5fd46d9b7379f3bc746d64736f6c634300081e0033\n}\n",
				"bytecode": {
					"linkReferences": {},
					"object": "6080604052678ac7230489e800006002555f5f9054906101000a900473ffffffffffffffffffffffffffffffffffffffff1673ffffffffffffffffffffffffffffffffffffffff1663dd62ed3e33306040518363ffffffff1660e01b815260040161006b929190610239565b602060405180830381865afa158015610086573d5f5f3e3d5ffd5b505050506040513d601f19601f820116820180604052508101906100aa9190610297565b6004555f5f9054906101000a900473ffffffffffffffffffffffffffffffffffffffff1673ffffffffffffffffffffffffffffffffffffffff166370a08231336040518263ffffffff1660e01b815260040161010691906102c2565b602060405180830381865afa158015610121573d5f5f3e3d5ffd5b505050506040513d601f19601f820116820180604052508101906101459190610297565b600555348015610153575f5ffd5b50604051610c9a380380610c9a83398181016040528101906101759190610305565b805f5f6101000a81548173ffffffffffffffffffffffffffffffffffffffff021916908373ffffffffffffffffffffffffffffffffffffffff1602179055503360015f6101000a81548173ffffffffffffffffffffffffffffffffffffffff021916908373ffffffffffffffffffffffffffffffffffffffff16021790555050610330565b5f73ffffffffffffffffffffffffffffffffffffffff82169050919050565b5f610223826101fa565b9050919050565b61023381610219565b82525050565b5f60408201905061024c5f83018561022a565b610259602083018461022a565b9392505050565b5f5ffd5b5f819050919050565b61027681610264565b8114610280575f5ffd5b50565b5f815190506102918161026d565b92915050565b5f602082840312156102ac576102ab610260565b5b5f6102b984828501610283565b91505092915050565b5f6020820190506102d55f83018461022a565b92915050565b6102e481610219565b81146102ee575f5ffd5b50565b5f815190506102ff816102db565b92915050565b5f6020828403121561031a57610319610260565b5b5f610327848285016102f1565b91505092915050565b61095d8061033d5f395ff3fe608060405234801561000f575f5ffd5b506004361061009c575f3560e01c8063b0dcaa9a11610064578063b0dcaa9a14610132578063b69ef8a814610150578063dd46f3491461016e578063ddca3f431461018c578063de242ff4146101aa5761009c565b80631032112f146100a05780632e64cec1146100be5780636057361d146100dc57806369fe0e2d146100f85780638da5cb5b14610114575b5f5ffd5b6100a86101c8565b6040516100b5919061076d565b60405180910390f35b6100c66101ec565b6040516100d3919061079e565b60405180910390f35b6100f660048036038101906100f191906107e5565b6101f5565b005b610112600480360381019061010d91906107e5565b6103a7565b005b61011c61057e565b6040516101299190610830565b60405180910390f35b61013a6105a3565b604051610147919061079e565b60405180910390f35b610158610641565b604051610165919061079e565b60405180910390f35b610176610647565b604051610183919061079e565b60405180910390f35b6101946106e7565b6040516101a1919061079e565b60405180910390f35b6101b26106ed565b6040516101bf919061079e565b60405180910390f35b5f5f9054906101000a900473ffffffffffffffffffffffffffffffffffffffff1681565b5f600354905090565b6002545f5f9054906101000a900473ffffffffffffffffffffffffffffffffffffffff1673ffffffffffffffffffffffffffffffffffffffff1663dd62ed3e33306040518363ffffffff1660e01b8152600401610253929190610849565b602060405180830381865afa15801561026e573d5f5f3e3d5ffd5b505050506040513d601f19601f820116820180604052508101906102929190610884565b10156102ca576040517f13be252b00000000000000000000000000000000000000000000000000000000815260040160405180910390fd5b6002545f5f9054906101000a900473ffffffffffffffffffffffffffffffffffffffff1673ffffffffffffffffffffffffffffffffffffffff166370a08231336040518263ffffffff1660e01b81526004016103269190610830565b602060405180830381865afa158015610341573d5f5f3e3d5ffd5b505050506040513d601f19601f820116820180604052508101906103659190610884565b101561039d576040517ff4d678b800000000000000000000000000000000000000000000000000000000815260040160405180910390fd5b8060038190555050565b60015f9054906101000a900473ffffffffffffffffffffffffffffffffffffffff1673ffffffffffffffffffffffffffffffffffffffff163373ffffffffffffffffffffffffffffffffffffffff1614610436576040517f08c379a000000000000000000000000000000000000000000000000000000000815260040161042d90610909565b60405180910390fd5b5f5f9054906101000a900473ffffffffffffffffffffffffffffffffffffffff1673ffffffffffffffffffffffffffffffffffffffff1663dd62ed3e33306040518363ffffffff1660e01b8152600401610491929190610849565b602060405180830381865afa1580156104ac573d5f5f3e3d5ffd5b505050506040513d601f19601f820116820180604052508101906104d09190610884565b6004819055505f5f9054906101000a900473ffffffffffffffffffffffffffffffffffffffff1673ffffffffffffffffffffffffffffffffffffffff166370a08231336040518263ffffffff1660e01b815260040161052f9190610830565b602060405180830381865afa15801561054a573d5f5f3e3d5ffd5b505050506040513d601f19601f8201168201806040525081019061056e9190610884565b6005819055508060028190555050565b60015f9054906101000a900473ffffffffffffffffffffffffffffffffffffffff1681565b5f5f5f9054906101000a900473ffffffffffffffffffffffffffffffffffffffff1673ffffffffffffffffffffffffffffffffffffffff166370a08231336040518263ffffffff1660e01b81526004016105fd9190610830565b602060405180830381865afa158015610618573d5f5f3e3d5ffd5b505050506040513d601f19601f8201168201806040525081019061063c9190610884565b905090565b60055481565b5f5f5f9054906101000a900473ffffffffffffffffffffffffffffffffffffffff1673ffffffffffffffffffffffffffffffffffffffff1663dd62ed3e33306040518363ffffffff1660e01b81526004016106a3929190610849565b602060405180830381865afa1580156106be573d5f5f3e3d5ffd5b505050506040513d601f19601f820116820180604052508101906106e29190610884565b905090565b60025481565b60045481565b5f73ffffffffffffffffffffffffffffffffffffffff82169050919050565b5f819050919050565b5f61073561073061072b846106f3565b610712565b6106f3565b9050919050565b5f6107468261071b565b9050919050565b5f6107578261073c565b9050919050565b6107678161074d565b82525050565b5f6020820190506107805f83018461075e565b92915050565b5f819050919050565b61079881610786565b82525050565b5f6020820190506107b15f83018461078f565b92915050565b5f5ffd5b6107c481610786565b81146107ce575f5ffd5b50565b5f813590506107df816107bb565b92915050565b5f602082840312156107fa576107f96107b7565b5b5f610807848285016107d1565b91505092915050565b5f61081a826106f3565b9050919050565b61082a81610810565b82525050565b5f6020820190506108435f830184610821565b92915050565b5f60408201905061085c5f830185610821565b6108696020830184610821565b9392505050565b5f8151905061087e816107bb565b92915050565b5f60208284031215610899576108986107b7565b5b5f6108a684828501610870565b91505092915050565b5f82825260208201905092915050565b7f4f6e6c79206f776e6572000000000000000000000000000000000000000000005f82015250565b5f6108f3600a836108af565b91506108fe826108bf565b602082019050919050565b5f6020820190508181035f830152610920816108e7565b905091905056fea26469706673582212204b1aed99052814e3bf09b391f1f1926fa69e5e0cee1d5fd46d9b7379f3bc746d64736f6c634300081e0033",
					"opcodes": "PUSH1 0x80 PUSH1 0x40 MSTORE PUSH8 0x8AC7230489E80000 PUSH1 0x2 SSTORE PUSH0 PUSH0 SWAP1 SLOAD SWAP1 PUSH2 0x100 EXP SWAP1 DIV PUSH20 0xFFFFFFFFFFFFFFFFFFFFFFFFFFFFFFFFFFFFFFFF AND PUSH20 0xFFFFFFFFFFFFFFFFFFFFFFFFFFFFFFFFFFFFFFFF AND PUSH4 0xDD62ED3E CALLER ADDRESS PUSH1 0x40 MLOAD DUP4 PUSH4 0xFFFFFFFF AND PUSH1 0xE0 SHL DUP2 MSTORE PUSH1 0x4 ADD PUSH2 0x6B SWAP3 SWAP2 SWAP1 PUSH2 0x239 JUMP JUMPDEST PUSH1 0x20 PUSH1 0x40 MLOAD DUP1 DUP4 SUB DUP2 DUP7 GAS STATICCALL ISZERO DUP1 ISZERO PUSH2 0x86 JUMPI RETURNDATASIZE PUSH0 PUSH0 RETURNDATACOPY RETURNDATASIZE PUSH0 REVERT JUMPDEST POP POP POP POP PUSH1 0x40 MLOAD RETURNDATASIZE PUSH1 0x1F NOT PUSH1 0x1F DUP3 ADD AND DUP3 ADD DUP1 PUSH1 0x40 MSTORE POP DUP2 ADD SWAP1 PUSH2 0xAA SWAP2 SWAP1 PUSH2 0x297 JUMP JUMPDEST PUSH1 0x4 SSTORE PUSH0 PUSH0 SWAP1 SLOAD SWAP1 PUSH2 0x100 EXP SWAP1 DIV PUSH20 0xFFFFFFFFFFFFFFFFFFFFFFFFFFFFFFFFFFFFFFFF AND PUSH20 0xFFFFFFFFFFFFFFFFFFFFFFFFFFFFFFFFFFFFFFFF AND PUSH4 0x70A08231 CALLER PUSH1 0x40 MLOAD DUP3 PUSH4 0xFFFFFFFF AND PUSH1 0xE0 SHL DUP2 MSTORE PUSH1 0x4 ADD PUSH2 0x106 SWAP2 SWAP1 PUSH2 0x2C2 JUMP JUMPDEST PUSH1 0x20 PUSH1 0x40 MLOAD DUP1 DUP4 SUB DUP2 DUP7 GAS STATICCALL ISZERO DUP1 ISZERO PUSH2 0x121 JUMPI RETURNDATASIZE PUSH0 PUSH0 RETURNDATACOPY RETURNDATASIZE PUSH0 REVERT JUMPDEST POP POP POP POP PUSH1 0x40 MLOAD RETURNDATASIZE PUSH1 0x1F NOT PUSH1 0x1F DUP3 ADD AND DUP3 ADD DUP1 PUSH1 0x40 MSTORE POP DUP2 ADD SWAP1 PUSH2 0x145 SWAP2 SWAP1 PUSH2 0x297 JUMP JUMPDEST PUSH1 0x5 SSTORE CALLVALUE DUP1 ISZERO PUSH2 0x153 JUMPI PUSH0 PUSH0 REVERT JUMPDEST POP PUSH1 0x40 MLOAD PUSH2 0xC9A CODESIZE SUB DUP1 PUSH2 0xC9A DUP4 CODECOPY DUP2 DUP2 ADD PUSH1 0x40 MSTORE DUP2 ADD SWAP1 PUSH2 0x175 SWAP2 SWAP1 PUSH2 0x305 JUMP JUMPDEST DUP1 PUSH0 PUSH0 PUSH2 0x100 EXP DUP2 SLOAD DUP2 PUSH20 0xFFFFFFFFFFFFFFFFFFFFFFFFFFFFFFFFFFFFFFFF MUL NOT AND SWAP1 DUP4 PUSH20 0xFFFFFFFFFFFFFFFFFFFFFFFFFFFFFFFFFFFFFFFF AND MUL OR SWAP1 SSTORE POP CALLER PUSH1 0x1 PUSH0 PUSH2 0x100 EXP DUP2 SLOAD DUP2 PUSH20 0xFFFFFFFFFFFFFFFFFFFFFFFFFFFFFFFFFFFFFFFF MUL NOT AND SWAP1 DUP4 PUSH20 0xFFFFFFFFFFFFFFFFFFFFFFFFFFFFFFFFFFFFFFFF AND MUL OR SWAP1 SSTORE POP POP PUSH2 0x330 JUMP JUMPDEST PUSH0 PUSH20 0xFFFFFFFFFFFFFFFFFFFFFFFFFFFFFFFFFFFFFFFF DUP3 AND SWAP1 POP SWAP2 SWAP1 POP JUMP JUMPDEST PUSH0 PUSH2 0x223 DUP3 PUSH2 0x1FA JUMP JUMPDEST SWAP1 POP SWAP2 SWAP1 POP JUMP JUMPDEST PUSH2 0x233 DUP2 PUSH2 0x219 JUMP JUMPDEST DUP3 MSTORE POP POP JUMP JUMPDEST PUSH0 PUSH1 0x40 DUP3 ADD SWAP1 POP PUSH2 0x24C PUSH0 DUP4 ADD DUP6 PUSH2 0x22A JUMP JUMPDEST PUSH2 0x259 PUSH1 0x20 DUP4 ADD DUP5 PUSH2 0x22A JUMP JUMPDEST SWAP4 SWAP3 POP POP POP JUMP JUMPDEST PUSH0 PUSH0 REVERT JUMPDEST PUSH0 DUP2 SWAP1 POP SWAP2 SWAP1 POP JUMP JUMPDEST PUSH2 0x276 DUP2 PUSH2 0x264 JUMP JUMPDEST DUP2 EQ PUSH2 0x280 JUMPI PUSH0 PUSH0 REVERT JUMPDEST POP JUMP JUMPDEST PUSH0 DUP2 MLOAD SWAP1 POP PUSH2 0x291 DUP2 PUSH2 0x26D JUMP JUMPDEST SWAP3 SWAP2 POP POP JUMP JUMPDEST PUSH0 PUSH1 0x20 DUP3 DUP5 SUB SLT ISZERO PUSH2 0x2AC JUMPI PUSH2 0x2AB PUSH2 0x260 JUMP JUMPDEST JUMPDEST PUSH0 PUSH2 0x2B9 DUP5 DUP3 DUP6 ADD PUSH2 0x283 JUMP JUMPDEST SWAP2 POP POP SWAP3 SWAP2 POP POP JUMP JUMPDEST PUSH0 PUSH1 0x20 DUP3 ADD SWAP1 POP PUSH2 0x2D5 PUSH0 DUP4 ADD DUP5 PUSH2 0x22A JUMP JUMPDEST SWAP3 SWAP2 POP POP JUMP JUMPDEST PUSH2 0x2E4 DUP2 PUSH2 0x219 JUMP JUMPDEST DUP2 EQ PUSH2 0x2EE JUMPI PUSH0 PUSH0 REVERT JUMPDEST POP JUMP JUMPDEST PUSH0 DUP2 MLOAD SWAP1 POP PUSH2 0x2FF DUP2 PUSH2 0x2DB JUMP JUMPDEST SWAP3 SWAP2 POP POP JUMP JUMPDEST PUSH0 PUSH1 0x20 DUP3 DUP5 SUB SLT ISZERO PUSH2 0x31A JUMPI PUSH2 0x319 PUSH2 0x260 JUMP JUMPDEST JUMPDEST PUSH0 PUSH2 0x327 DUP5 DUP3 DUP6 ADD PUSH2 0x2F1 JUMP JUMPDEST SWAP2 POP POP SWAP3 SWAP2 POP POP JUMP JUMPDEST PUSH2 0x95D DUP1 PUSH2 0x33D PUSH0 CODECOPY PUSH0 RETURN INVALID PUSH1 0x80 PUSH1 0x40 MSTORE CALLVALUE DUP1 ISZERO PUSH2 0xF JUMPI PUSH0 PUSH0 REVERT JUMPDEST POP PUSH1 0x4 CALLDATASIZE LT PUSH2 0x9C JUMPI PUSH0 CALLDATALOAD PUSH1 0xE0 SHR DUP1 PUSH4 0xB0DCAA9A GT PUSH2 0x64 JUMPI DUP1 PUSH4 0xB0DCAA9A EQ PUSH2 0x132 JUMPI DUP1 PUSH4 0xB69EF8A8 EQ PUSH2 0x150 JUMPI DUP1 PUSH4 0xDD46F349 EQ PUSH2 0x16E JUMPI DUP1 PUSH4 0xDDCA3F43 EQ PUSH2 0x18C JUMPI DUP1 PUSH4 0xDE242FF4 EQ PUSH2 0x1AA JUMPI PUSH2 0x9C JUMP JUMPDEST DUP1 PUSH4 0x1032112F EQ PUSH2 0xA0 JUMPI DUP1 PUSH4 0x2E64CEC1 EQ PUSH2 0xBE JUMPI DUP1 PUSH4 0x6057361D EQ PUSH2 0xDC JUMPI DUP1 PUSH4 0x69FE0E2D EQ PUSH2 0xF8 JUMPI DUP1 PUSH4 0x8DA5CB5B EQ PUSH2 0x114 JUMPI JUMPDEST PUSH0 PUSH0 REVERT JUMPDEST PUSH2 0xA8 PUSH2 0x1C8 JUMP JUMPDEST PUSH1 0x40 MLOAD PUSH2 0xB5 SWAP2 SWAP1 PUSH2 0x76D JUMP JUMPDEST PUSH1 0x40 MLOAD DUP1 SWAP2 SUB SWAP1 RETURN JUMPDEST PUSH2 0xC6 PUSH2 0x1EC JUMP JUMPDEST PUSH1 0x40 MLOAD PUSH2 0xD3 SWAP2 SWAP1 PUSH2 0x79E JUMP JUMPDEST PUSH1 0x40 MLOAD DUP1 SWAP2 SUB SWAP1 RETURN JUMPDEST PUSH2 0xF6 PUSH1 0x4 DUP1 CALLDATASIZE SUB DUP2 ADD SWAP1 PUSH2 0xF1 SWAP2 SWAP1 PUSH2 0x7E5 JUMP JUMPDEST PUSH2 0x1F5 JUMP JUMPDEST STOP JUMPDEST PUSH2 0x112 PUSH1 0x4 DUP1 CALLDATASIZE SUB DUP2 ADD SWAP1 PUSH2 0x10D SWAP2 SWAP1 PUSH2 0x7E5 JUMP JUMPDEST PUSH2 0x3A7 JUMP JUMPDEST STOP JUMPDEST PUSH2 0x11C PUSH2 0x57E JUMP JUMPDEST PUSH1 0x40 MLOAD PUSH2 0x129 SWAP2 SWAP1 PUSH2 0x830 JUMP JUMPDEST PUSH1 0x40 MLOAD DUP1 SWAP2 SUB SWAP1 RETURN JUMPDEST PUSH2 0x13A PUSH2 0x5A3 JUMP JUMPDEST PUSH1 0x40 MLOAD PUSH2 0x147 SWAP2 SWAP1 PUSH2 0x79E JUMP JUMPDEST PUSH1 0x40 MLOAD DUP1 SWAP2 SUB SWAP1 RETURN JUMPDEST PUSH2 0x158 PUSH2 0x641 JUMP JUMPDEST PUSH1 0x40 MLOAD PUSH2 0x165 SWAP2 SWAP1 PUSH2 0x79E JUMP JUMPDEST PUSH1 0x40 MLOAD DUP1 SWAP2 SUB SWAP1 RETURN JUMPDEST PUSH2 0x176 PUSH2 0x647 JUMP JUMPDEST PUSH1 0x40 MLOAD PUSH2 0x183 SWAP2 SWAP1 PUSH2 0x79E JUMP JUMPDEST PUSH1 0x40 MLOAD DUP1 SWAP2 SUB SWAP1 RETURN JUMPDEST PUSH2 0x194 PUSH2 0x6E7 JUMP JUMPDEST PUSH1 0x40 MLOAD PUSH2 0x1A1 SWAP2 SWAP1 PUSH2 0x79E JUMP JUMPDEST PUSH1 0x40 MLOAD DUP1 SWAP2 SUB SWAP1 RETURN JUMPDEST PUSH2 0x1B2 PUSH2 0x6ED JUMP JUMPDEST PUSH1 0x40 MLOAD PUSH2 0x1BF SWAP2 SWAP1 PUSH2 0x79E JUMP JUMPDEST PUSH1 0x40 MLOAD DUP1 SWAP2 SUB SWAP1 RETURN JUMPDEST PUSH0 PUSH0 SWAP1 SLOAD SWAP1 PUSH2 0x100 EXP SWAP1 DIV PUSH20 0xFFFFFFFFFFFFFFFFFFFFFFFFFFFFFFFFFFFFFFFF AND DUP2 JUMP JUMPDEST PUSH0 PUSH1 0x3 SLOAD SWAP1 POP SWAP1 JUMP JUMPDEST PUSH1 0x2 SLOAD PUSH0 PUSH0 SWAP1 SLOAD SWAP1 PUSH2 0x100 EXP SWAP1 DIV PUSH20 0xFFFFFFFFFFFFFFFFFFFFFFFFFFFFFFFFFFFFFFFF AND PUSH20 0xFFFFFFFFFFFFFFFFFFFFFFFFFFFFFFFFFFFFFFFF AND PUSH4 0xDD62ED3E CALLER ADDRESS PUSH1 0x40 MLOAD DUP4 PUSH4 0xFFFFFFFF AND PUSH1 0xE0 SHL DUP2 MSTORE PUSH1 0x4 ADD PUSH2 0x253 SWAP3 SWAP2 SWAP1 PUSH2 0x849 JUMP JUMPDEST PUSH1 0x20 PUSH1 0x40 MLOAD DUP1 DUP4 SUB DUP2 DUP7 GAS STATICCALL ISZERO DUP1 ISZERO PUSH2 0x26E JUMPI RETURNDATASIZE PUSH0 PUSH0 RETURNDATACOPY RETURNDATASIZE PUSH0 REVERT JUMPDEST POP POP POP POP PUSH1 0x40 MLOAD RETURNDATASIZE PUSH1 0x1F NOT PUSH1 0x1F DUP3 ADD AND DUP3 ADD DUP1 PUSH1 0x40 MSTORE POP DUP2 ADD SWAP1 PUSH2 0x292 SWAP2 SWAP1 PUSH2 0x884 JUMP JUMPDEST LT ISZERO PUSH2 0x2CA JUMPI PUSH1 0x40 MLOAD PUSH32 0x13BE252B00000000000000000000000000000000000000000000000000000000 DUP2 MSTORE PUSH1 0x4 ADD PUSH1 0x40 MLOAD DUP1 SWAP2 SUB SWAP1 REVERT JUMPDEST PUSH1 0x2 SLOAD PUSH0 PUSH0 SWAP1 SLOAD SWAP1 PUSH2 0x100 EXP SWAP1 DIV PUSH20 0xFFFFFFFFFFFFFFFFFFFFFFFFFFFFFFFFFFFFFFFF AND PUSH20 0xFFFFFFFFFFFFFFFFFFFFFFFFFFFFFFFFFFFFFFFF AND PUSH4 0x70A08231 CALLER PUSH1 0x40 MLOAD DUP3 PUSH4 0xFFFFFFFF AND PUSH1 0xE0 SHL DUP2 MSTORE PUSH1 0x4 ADD PUSH2 0x326 SWAP2 SWAP1 PUSH2 0x830 JUMP JUMPDEST PUSH1 0x20 PUSH1 0x40 MLOAD DUP1 DUP4 SUB DUP2 DUP7 GAS STATICCALL ISZERO DUP1 ISZERO PUSH2 0x341 JUMPI RETURNDATASIZE PUSH0 PUSH0 RETURNDATACOPY RETURNDATASIZE PUSH0 REVERT JUMPDEST POP POP POP POP PUSH1 0x40 MLOAD RETURNDATASIZE PUSH1 0x1F NOT PUSH1 0x1F DUP3 ADD AND DUP3 ADD DUP1 PUSH1 0x40 MSTORE POP DUP2 ADD SWAP1 PUSH2 0x365 SWAP2 SWAP1 PUSH2 0x884 JUMP JUMPDEST LT ISZERO PUSH2 0x39D JUMPI PUSH1 0x40 MLOAD PUSH32 0xF4D678B800000000000000000000000000000000000000000000000000000000 DUP2 MSTORE PUSH1 0x4 ADD PUSH1 0x40 MLOAD DUP1 SWAP2 SUB SWAP1 REVERT JUMPDEST DUP1 PUSH1 0x3 DUP2 SWAP1 SSTORE POP POP JUMP JUMPDEST PUSH1 0x1 PUSH0 SWAP1 SLOAD SWAP1 PUSH2 0x100 EXP SWAP1 DIV PUSH20 0xFFFFFFFFFFFFFFFFFFFFFFFFFFFFFFFFFFFFFFFF AND PUSH20 0xFFFFFFFFFFFFFFFFFFFFFFFFFFFFFFFFFFFFFFFF AND CALLER PUSH20 0xFFFFFFFFFFFFFFFFFFFFFFFFFFFFFFFFFFFFFFFF AND EQ PUSH2 0x436 JUMPI PUSH1 0x40 MLOAD PUSH32 0x8C379A000000000000000000000000000000000000000000000000000000000 DUP2 MSTORE PUSH1 0x4 ADD PUSH2 0x42D SWAP1 PUSH2 0x909 JUMP JUMPDEST PUSH1 0x40 MLOAD DUP1 SWAP2 SUB SWAP1 REVERT JUMPDEST PUSH0 PUSH0 SWAP1 SLOAD SWAP1 PUSH2 0x100 EXP SWAP1 DIV PUSH20 0xFFFFFFFFFFFFFFFFFFFFFFFFFFFFFFFFFFFFFFFF AND PUSH20 0xFFFFFFFFFFFFFFFFFFFFFFFFFFFFFFFFFFFFFFFF AND PUSH4 0xDD62ED3E CALLER ADDRESS PUSH1 0x40 MLOAD DUP4 PUSH4 0xFFFFFFFF AND PUSH1 0xE0 SHL DUP2 MSTORE PUSH1 0x4 ADD PUSH2 0x491 SWAP3 SWAP2 SWAP1 PUSH2 0x849 JUMP JUMPDEST PUSH1 0x20 PUSH1 0x40 MLOAD DUP1 DUP4 SUB DUP2 DUP7 GAS STATICCALL ISZERO DUP1 ISZERO PUSH2 0x4AC JUMPI RETURNDATASIZE PUSH0 PUSH0 RETURNDATACOPY RETURNDATASIZE PUSH0 REVERT JUMPDEST POP POP POP POP PUSH1 0x40 MLOAD RETURNDATASIZE PUSH1 0x1F NOT PUSH1 0x1F DUP3 ADD AND DUP3 ADD DUP1 PUSH1 0x40 MSTORE POP DUP2 ADD SWAP1 PUSH2 0x4D0 SWAP2 SWAP1 PUSH2 0x884 JUMP JUMPDEST PUSH1 0x4 DUP2 SWAP1 SSTORE POP PUSH0 PUSH0 SWAP1 SLOAD SWAP1 PUSH2 0x100 EXP SWAP1 DIV PUSH20 0xFFFFFFFFFFFFFFFFFFFFFFFFFFFFFFFFFFFFFFFF AND PUSH20 0xFFFFFFFFFFFFFFFFFFFFFFFFFFFFFFFFFFFFFFFF AND PUSH4 0x70A08231 CALLER PUSH1 0x40 MLOAD DUP3 PUSH4 0xFFFFFFFF AND PUSH1 0xE0 SHL DUP2 MSTORE PUSH1 0x4 ADD PUSH2 0x52F SWAP2 SWAP1 PUSH2 0x830 JUMP JUMPDEST PUSH1 0x20 PUSH1 0x40 MLOAD DUP1 DUP4 SUB DUP2 DUP7 GAS STATICCALL ISZERO DUP1 ISZERO PUSH2 0x54A JUMPI RETURNDATASIZE PUSH0 PUSH0 RETURNDATACOPY RETURNDATASIZE PUSH0 REVERT JUMPDEST POP POP POP POP PUSH1 0x40 MLOAD RETURNDATASIZE PUSH1 0x1F NOT PUSH1 0x1F DUP3 ADD AND DUP3 ADD DUP1 PUSH1 0x40 MSTORE POP DUP2 ADD SWAP1 PUSH2 0x56E SWAP2 SWAP1 PUSH2 0x884 JUMP JUMPDEST PUSH1 0x5 DUP2 SWAP1 SSTORE POP DUP1 PUSH1 0x2 DUP2 SWAP1 SSTORE POP POP JUMP JUMPDEST PUSH1 0x1 PUSH0 SWAP1 SLOAD SWAP1 PUSH2 0x100 EXP SWAP1 DIV PUSH20 0xFFFFFFFFFFFFFFFFFFFFFFFFFFFFFFFFFFFFFFFF AND DUP2 JUMP JUMPDEST PUSH0 PUSH0 PUSH0 SWAP1 SLOAD SWAP1 PUSH2 0x100 EXP SWAP1 DIV PUSH20 0xFFFFFFFFFFFFFFFFFFFFFFFFFFFFFFFFFFFFFFFF AND PUSH20 0xFFFFFFFFFFFFFFFFFFFFFFFFFFFFFFFFFFFFFFFF AND PUSH4 0x70A08231 CALLER PUSH1 0x40 MLOAD DUP3 PUSH4 0xFFFFFFFF AND PUSH1 0xE0 SHL DUP2 MSTORE PUSH1 0x4 ADD PUSH2 0x5FD SWAP2 SWAP1 PUSH2 0x830 JUMP JUMPDEST PUSH1 0x20 PUSH1 0x40 MLOAD DUP1 DUP4 SUB DUP2 DUP7 GAS STATICCALL ISZERO DUP1 ISZERO PUSH2 0x618 JUMPI RETURNDATASIZE PUSH0 PUSH0 RETURNDATACOPY RETURNDATASIZE PUSH0 REVERT JUMPDEST POP POP POP POP PUSH1 0x40 MLOAD RETURNDATASIZE PUSH1 0x1F NOT PUSH1 0x1F DUP3 ADD AND DUP3 ADD DUP1 PUSH1 0x40 MSTORE POP DUP2 ADD SWAP1 PUSH2 0x63C SWAP2 SWAP1 PUSH2 0x884 JUMP JUMPDEST SWAP1 POP SWAP1 JUMP JUMPDEST PUSH1 0x5 SLOAD DUP2 JUMP JUMPDEST PUSH0 PUSH0 PUSH0 SWAP1 SLOAD SWAP1 PUSH2 0x100 EXP SWAP1 DIV PUSH20 0xFFFFFFFFFFFFFFFFFFFFFFFFFFFFFFFFFFFFFFFF AND PUSH20 0xFFFFFFFFFFFFFFFFFFFFFFFFFFFFFFFFFFFFFFFF AND PUSH4 0xDD62ED3E CALLER ADDRESS PUSH1 0x40 MLOAD DUP4 PUSH4 0xFFFFFFFF AND PUSH1 0xE0 SHL DUP2 MSTORE PUSH1 0x4 ADD PUSH2 0x6A3 SWAP3 SWAP2 SWAP1 PUSH2 0x849 JUMP JUMPDEST PUSH1 0x20 PUSH1 0x40 MLOAD DUP1 DUP4 SUB DUP2 DUP7 GAS STATICCALL ISZERO DUP1 ISZERO PUSH2 0x6BE JUMPI RETURNDATASIZE PUSH0 PUSH0 RETURNDATACOPY RETURNDATASIZE PUSH0 REVERT JUMPDEST POP POP POP POP PUSH1 0x40 MLOAD RETURNDATASIZE PUSH1 0x1F NOT PUSH1 0x1F DUP3 ADD AND DUP3 ADD DUP1 PUSH1 0x40 MSTORE POP DUP2 ADD SWAP1 PUSH2 0x6E2 SWAP2 SWAP1 PUSH2 0x884 JUMP JUMPDEST SWAP1 POP SWAP1 JUMP JUMPDEST PUSH1 0x2 SLOAD DUP2 JUMP JUMPDEST PUSH1 0x4 SLOAD DUP2 JUMP JUMPDEST PUSH0 PUSH20 0xFFFFFFFFFFFFFFFFFFFFFFFFFFFFFFFFFFFFFFFF DUP3 AND SWAP1 POP SWAP2 SWAP1 POP JUMP JUMPDEST PUSH0 DUP2 SWAP1 POP SWAP2 SWAP1 POP JUMP JUMPDEST PUSH0 PUSH2 0x735 PUSH2 0x730 PUSH2 0x72B DUP5 PUSH2 0x6F3 JUMP JUMPDEST PUSH2 0x712 JUMP JUMPDEST PUSH2 0x6F3 JUMP JUMPDEST SWAP1 POP SWAP2 SWAP1 POP JUMP JUMPDEST PUSH0 PUSH2 0x746 DUP3 PUSH2 0x71B JUMP JUMPDEST SWAP1 POP SWAP2 SWAP1 POP JUMP JUMPDEST PUSH0 PUSH2 0x757 DUP3 PUSH2 0x73C JUMP JUMPDEST SWAP1 POP SWAP2 SWAP1 POP JUMP JUMPDEST PUSH2 0x767 DUP2 PUSH2 0x74D JUMP JUMPDEST DUP3 MSTORE POP POP JUMP JUMPDEST PUSH0 PUSH1 0x20 DUP3 ADD SWAP1 POP PUSH2 0x780 PUSH0 DUP4 ADD DUP5 PUSH2 0x75E JUMP JUMPDEST SWAP3 SWAP2 POP POP JUMP JUMPDEST PUSH0 DUP2 SWAP1 POP SWAP2 SWAP1 POP JUMP JUMPDEST PUSH2 0x798 DUP2 PUSH2 0x786 JUMP JUMPDEST DUP3 MSTORE POP POP JUMP JUMPDEST PUSH0 PUSH1 0x20 DUP3 ADD SWAP1 POP PUSH2 0x7B1 PUSH0 DUP4 ADD DUP5 PUSH2 0x78F JUMP JUMPDEST SWAP3 SWAP2 POP POP JUMP JUMPDEST PUSH0 PUSH0 REVERT JUMPDEST PUSH2 0x7C4 DUP2 PUSH2 0x786 JUMP JUMPDEST DUP2 EQ PUSH2 0x7CE JUMPI PUSH0 PUSH0 REVERT JUMPDEST POP JUMP JUMPDEST PUSH0 DUP2 CALLDATALOAD SWAP1 POP PUSH2 0x7DF DUP2 PUSH2 0x7BB JUMP JUMPDEST SWAP3 SWAP2 POP POP JUMP JUMPDEST PUSH0 PUSH1 0x20 DUP3 DUP5 SUB SLT ISZERO PUSH2 0x7FA JUMPI PUSH2 0x7F9 PUSH2 0x7B7 JUMP JUMPDEST JUMPDEST PUSH0 PUSH2 0x807 DUP5 DUP3 DUP6 ADD PUSH2 0x7D1 JUMP JUMPDEST SWAP2 POP POP SWAP3 SWAP2 POP POP JUMP JUMPDEST PUSH0 PUSH2 0x81A DUP3 PUSH2 0x6F3 JUMP JUMPDEST SWAP1 POP SWAP2 SWAP1 POP JUMP JUMPDEST PUSH2 0x82A DUP2 PUSH2 0x810 JUMP JUMPDEST DUP3 MSTORE POP POP JUMP JUMPDEST PUSH0 PUSH1 0x20 DUP3 ADD SWAP1 POP PUSH2 0x843 PUSH0 DUP4 ADD DUP5 PUSH2 0x821 JUMP JUMPDEST SWAP3 SWAP2 POP POP JUMP JUMPDEST PUSH0 PUSH1 0x40 DUP3 ADD SWAP1 POP PUSH2 0x85C PUSH0 DUP4 ADD DUP6 PUSH2 0x821 JUMP JUMPDEST PUSH2 0x869 PUSH1 0x20 DUP4 ADD DUP5 PUSH2 0x821 JUMP JUMPDEST SWAP4 SWAP3 POP POP POP JUMP JUMPDEST PUSH0 DUP2 MLOAD SWAP1 POP PUSH2 0x87E DUP2 PUSH2 0x7BB JUMP JUMPDEST SWAP3 SWAP2 POP POP JUMP JUMPDEST PUSH0 PUSH1 0x20 DUP3 DUP5 SUB SLT ISZERO PUSH2 0x899 JUMPI PUSH2 0x898 PUSH2 0x7B7 JUMP JUMPDEST JUMPDEST PUSH0 PUSH2 0x8A6 DUP5 DUP3 DUP6 ADD PUSH2 0x870 JUMP JUMPDEST SWAP2 POP POP SWAP3 SWAP2 POP POP JUMP JUMPDEST PUSH0 DUP3 DUP3 MSTORE PUSH1 0x20 DUP3 ADD SWAP1 POP SWAP3 SWAP2 POP POP JUMP JUMPDEST PUSH32 0x4F6E6C79206F776E657200000000000000000000000000000000000000000000 PUSH0 DUP3 ADD MSTORE POP JUMP JUMPDEST PUSH0 PUSH2 0x8F3 PUSH1 0xA DUP4 PUSH2 0x8AF JUMP JUMPDEST SWAP2 POP PUSH2 0x8FE DUP3 PUSH2 0x8BF JUMP JUMPDEST PUSH1 0x20 DUP3 ADD SWAP1 POP SWAP2 SWAP1 POP JUMP JUMPDEST PUSH0 PUSH1 0x20 DUP3 ADD SWAP1 POP DUP2 DUP2 SUB PUSH0 DUP4 ADD MSTORE PUSH2 0x920 DUP2 PUSH2 0x8E7 JUMP JUMPDEST SWAP1 POP SWAP2 SWAP1 POP JUMP INVALID LOG2 PUSH5 0x6970667358 0x22 SLT KECCAK256 0x4B BYTE 0xED SWAP10 SDIV 0x28 EQ CALLF 0xBF09 0xB3 SWAP2 CALL CALL SWAP3 PUSH16 0xA69E5E0CEE1D5FD46D9B7379F3BC746D PUSH5 0x736F6C6343 STOP ADDMOD 0x1E STOP CALLER "
				},
				"gasEstimates": {
					"creation": {
						"codeDepositCost": "479400",
						"executionCost": "infinite",
						"totalCost": "infinite"
					},
					"external": {
						"allowance()": "2513",
						"balance()": "2447",
						"checkMyCLQAllowance()": "infinite",
						"checkMyCLQBalance()": "infinite",
						"clqToken()": "infinite",
						"fee()": "2491",
						"owner()": "2597",
						"retrieve()": "2455",
						"setFee(uint256)": "infinite",
						"store(uint256)": "infinite"
					}
				},
				"methodIdentifiers": {
					"allowance()": "de242ff4",
					"balance()": "b69ef8a8",
					"checkMyCLQAllowance()": "dd46f349",
					"checkMyCLQBalance()": "b0dcaa9a",
					"clqToken()": "1032112f",
					"fee()": "ddca3f43",
					"owner()": "8da5cb5b",
					"retrieve()": "2e64cec1",
					"setFee(uint256)": "69fe0e2d",
					"store(uint256)": "6057361d"
				}
			},
			"storageLayout": {
				"storage": [
					{
						"astId": 654,
						"contract": "contracts/storage_clq.sol:PaidStorage",
						"label": "clqToken",
						"offset": 0,
						"slot": "0",
						"type": "t_contract(IERC20)167"
					},
					{
						"astId": 656,
						"contract": "contracts/storage_clq.sol:PaidStorage",
						"label": "owner",
						"offset": 0,
						"slot": "1",
						"type": "t_address"
					},
					{
						"astId": 663,
						"contract": "contracts/storage_clq.sol:PaidStorage",
						"label": "fee",
						"offset": 0,
						"slot": "2",
						"type": "t_uint256"
					},
					{
						"astId": 665,
						"contract": "contracts/storage_clq.sol:PaidStorage",
						"label": "number",
						"offset": 0,
						"slot": "3",
						"type": "t_uint256"
					},
					{
						"astId": 676,
						"contract": "contracts/storage_clq.sol:PaidStorage",
						"label": "allowance",
						"offset": 0,
						"slot": "4",
						"type": "t_uint256"
					},
					{
						"astId": 683,
						"contract": "contracts/storage_clq.sol:PaidStorage",
						"label": "balance",
						"offset": 0,
						"slot": "5",
						"type": "t_uint256"
					}
				],
				"types": {
					"t_address": {
						"encoding": "inplace",
						"label": "address",
						"numberOfBytes": "20"
					},
					"t_contract(IERC20)167": {
						"encoding": "inplace",
						"label": "contract IERC20",
						"numberOfBytes": "20"
					},
					"t_uint256": {
						"encoding": "inplace",
						"label": "uint256",
						"numberOfBytes": "32"
					}
				}
			},
			"userdoc": {
				"kind": "user",
				"methods": {},
				"version": 1
			}
		}
	}
}